:100000000C942A010C9452010C9452010C9452014C
:100010000C9452010C9452010C9452010C94520114
:100020000C9452010C9452010C9411040C9483040E
:100030000C9452010C9452010C9452010C945201F4
:100040000C9452010C94A0090C9452010C9452018E
:100050000C9452010C9452010C9452010C9499107E
:100060000C9452010C942D080C9407080C94520126
:100070000C9452010C9452010C9452010C945201B4
:100080000C94530D0C9452010C9452010C94520197
:100090000C94610A0C9452010C9452010C9452017C
:1000A0000C9452010C9452010C945201B819A119EC
:1000B00094198F19001A4219311922191519AA0F0A
:1000C000AD0F9C0FA00FA60FCE0FCE0FCE0FB10F0E
:1000D000B50FB90FBF0FC30FCE0FC90F036EDB36BD
:1000E0003D9A9999993DABAAAA2A3E000000803F0B
:1000F000072C7AA5BA6CC590DA3B9365FC8BBC5390
:10010000F810FD3C5692834DBD879D3AB63DCBC954
:10011000BF5BBE73DA0FC93F4E414E494E49545939
:10012000494E46CDCCCC3D0AD7233C17B7D13877C2
:10013000CC2B329595E6241FB14F0A0000204100D8
:1001400000C84200401C4620BCBE4CCA1B0E5AAE22
:10015000C59D74000000002300260029002C002FFC
:1001600000080B0002020201000904000001020263
:1001700000000524001001052401010104240206E9
:100180000524060001070581031000400904010051
:10019000020A000000070502024000000705830272
:1001A0004000000403090412010002EF0201404173
:1001B00023368000010102030141726475696E6F8C
:1001C000204C4C430041726475696E6F204C656F22
:1001D0006E6172646F0000000000240027002A0096
:1001E0002D00300000000000250028002B002E000C
:1001F000310004040404040304050202020204039F
:1002000002020202060606060606040402020204B0
:100210000404080201104080401020408040800803
:100220000204018040201002011080102040402074
:100230000000000200090F0000030401000C000090
:1002400000000000000000000000000000000000AE
:10025000C21EBE1E11241FBECFEFDAE0DEBFCDBF2F
:1002600011E0A0E0B1E0E0EDFDE402C005900D92E8
:10027000A637B107D9F723E0A6E7B1E001C01D9288
:10028000A43FB207E1F711E0C9E2D1E004C0219731
:10029000FE010E94BA24C832D107C9F70E94281172
:1002A0000C94DB260C9400004091E6015091E7018C
:1002B0002091E4013091E50142175307B4F4909185
:1002C000E8009570E1F39091E80092FD19C08093E9
:1002D000F1008091E6019091E70101968F739927D3
:1002E000892B19F48EEF8093E8008091E6019091BC
:1002F000E70101969093E7018093E60181E008957C
:1003000080E00895DF92EF92FF920F931F93CF93B7
:10031000DF93D82EF92EE42E062F10E0C8010196A7
:10032000880F0E94540183E00E945401CD2DDF2DDF
:100330000C0F1D1FC017D10789F0E7FE03C0FE0197
:10034000849101C088810E945401F82E80E00E94AF
:1003500054018F2121968111EDCF01C081E0DF9101
:10036000CF911F910F91FF90EF90DF900895DF9252
:10037000EF92FF920F931F93CF93DF93D82E8A01B2
:100380007B01E40EF51EEB01CE15DF0571F0D7FE03
:1003900003C0FE01849101C088810E94540121960E
:1003A0008111F2CF8FEF9FEF01C0C801DF91CF9194
:1003B0001F910F91FF90EF90DF900895615030F002
:1003C0002091F100FC0120830196F8CF289884E663
:1003D00080935A020895CF92DF92EF92FF920F938B
:1003E0001F93CF93DF936C017A018B01C0E0D0E0C3
:1003F000CE15DF0581F0D8016D918D01D601ED910B
:10040000FC910190F081E02DC6010995892B11F036
:100410002196EECF7E01C701DF91CF911F910F9101
:10042000FF90EF90DF90CF900895FC01538D448DA5
:10043000252F30E0842F90E0821B930B541710F08F
:10044000CF96089501970895FC01918D828D98179C
:1004500061F0828DDF01A80FB11D5D968C91928DA8
:100460009F5F9F73928F90E008958FEF9FEF0895A5
:10047000FC01918D828D981731F0828DE80FF11D6E
:10048000858D90E008958FEF9FEF0895FC01918D89
:10049000228D892F90E0805C9F4F821B91098F7382
:1004A0009927089587EA92E00E94460221E0892B6D
:1004B00009F420E0822F0895FC01848DDF01A80F4C
:1004C000B11DA35ABF4F2C91848D90E001968F737C
:1004D0009927848FA689B7892C93A089B1898C919B
:1004E00082748C93938D848D981306C00288F3894F
:1004F000E02D80818F7D80830895EF92FF920F938E
:100500001F93CF93DF93EC0181E0888F9B8D8C8DBF
:10051000981305C0E889F989808185FD26C0F62EEB
:100520000B8D10E00F5F1F4F0F731127E02E8C8D86
:10053000E8120CC00FB607FCFACFE889F989808170
:1005400085FFF5CFCE010E945C02F1CF8B8DFE01BD
:10055000E80FF11DE35AFF4FF0829FB7F8940B8F1D
:10056000EA89FB898081806209C09FB7F894EE898F
:10057000FF896083E889F9898081827480839FBFC5
:1005800081E090E0DF91CF911F910F91FF90EF906C
:100590000895CF93DF93EC01888D8823C9F0EA8911
:1005A000FB89808185FD05C0A889B9898C9186FD6C
:1005B0000FC00FB607FCF5CF808185FFF2CFA88969
:1005C000B9898C9185FFEDCFCE010E945C02E7CF07
:1005D000DF91CF91089580E090E0892B29F00E946F
:1005E000520281110C94000008950E94BB260F93C3
:1005F0001F93CF93DF931F92CDB7DEB782E089833D
:1006000042E450E061E671E080E80E94B7010E9498
:100610007E0FDC0112960D911C91139701151105A7
:1006200089F0D801ED91FC910280F381E02DBE01AB
:100630006F5F7F4FC801099597FD04C0F8010085E1
:100640001185ECCF89810F90DF91CF911F910F9190
:1006500008958F929F92AF92BF92CF92DF92EF92C6
:10066000FF920F931F93CF93DF936C017B018A015D
:1006700080911701882309F45CC080915B02882374
:1006800009F457C08091760180FF05C08091E00099
:1006900082608093E000E801B12C8AEFA82E93E0FD
:1006A000892E2AE3922E209711F4BB20D9F10E94C3
:1006B0006D0F81110AC0AA94AA20D9F161E070E0FF
:1006C00080E090E00E945F10EECF282F30E0C2174C
:1006D000D3070CF48C2F9FB7F8948092E9002091F7
:1006E000E80025FF1DC0282F30E0C21BD30BF70107
:1006F000815020F041914093F100FACFE20EF31EB9
:10070000BB2019F09092E8000AC08091E80085FDB6
:1007100007C09092E800BB24B394209709F0B12C55
:100720009FBFC1CF5D9884E68093E9011016110642
:1007300044F081E090E0F6019383828380E090E0D2
:1007400001C0C801DF91CF911F910F91FF90EF90F1
:10075000DF90CF90BF90AF909F908F900895FC0155
:1007600080819181009711F00C94601F60E070E02F
:10077000CB0108950F931F93CF93DF93EC018881F2
:100780009981009729F02A813B812617370788F441
:100790008B016F5F7F4F0E94F525009761F0998371
:1007A00088831B830A832C813D81232B11F4FC0158
:1007B000108281E001C080E0DF91CF911F910F9105
:1007C0000895EF92FF920F931F93CF93DF93EC0165
:1007D0007B018A01BA010E94BA0328813981811103
:1007E0000DC02115310519F0C9010E946C2519822F
:1007F00018821D821C821B821A8206C01D830C83F4
:10080000B701C9010E94D426CE01DF91CF911F917B
:100810000F91FF90EF900895FC01808191810C94DD
:100820006C251F920F920FB60F9211248F939F93F6
:100830008091E1009091E100937F9093E10083FF2C
:100840000FC01092E90091E09093EB001092EC0041
:1008500092E39093ED0010925B0298E09093F00089
:1008600082FF20C093E09093E9009091F2009923D9
:1008700019F09AE39093E8009091E901992339F0F7
:100880009091E90191509093E901992389F1909118
:100890005A02992339F090915A02915090935A023A
:1008A000992341F184FF10C08091E2008E7E816027
:1008B0008093E2008091E1008F7E8093E10080913F
:1008C00076018E7E806111C080FF16C08091E200AB
:1008D0008E7E80618093E2008091E1008E7E809325
:1008E000E100809176018E7E81608093760104C064
:1008F0005D9ACDCF289AD6CF9F918F910F900FBE42
:100900000F901F9018951F920F920FB60F921124FF
:10091000CF92DF92EF92FF920F931F932F933F930B
:100920004F935F936F937F938F939F93AF93BF93F7
:10093000EF93FF93CF93DF93CDB7DEB76C97DEBF16
:10094000CDBF1092E9008091E80083FFFBC168E011
:10095000CE0145960E94DE0182EF8093E8008D89EA
:1009600087FF05C09091E80090FFFCCF03C09EEF89
:100970009093E800982F907609F0C6C09E894F8921
:10098000588D2F89F88C91110CC0803829F48091F2
:1009900077018093F10002C01092F1001092F100F3
:1009A00045C1913051F4811141C14130510509F0E7
:1009B0003DC1809177018D7F0BC0933061F481112F
:1009C00035C14130510509F031C180917701826014
:1009D000809377012BC1953049F48091E80080FF26
:1009E000FCCF822F80688093E30020C1963009F00D
:1009F0005EC00B8D1C8D22E01092E9001092E70181
:100A00001092E601F21232C01092E5011092E40158
:100A10000E94F70299E0BE016F5F7F4FDB01E92F73
:100A20001D92EA95E9F79983FA8291E09E8390EA14
:100A300098879AEF99872091E6013091E701275F27
:100A40003F4F3C832B838D831092E9001092E70186
:100A50001092E6011093E5010093E40149E050E0B3
:100A600080E00E94B7010E94F702E0C01093E50108
:100A70000093E4010E947E0FDC0112960D911C91FF
:100A800013970115110509F4BBC0D801ED91FC9134
:100A90000480F581E02DBE016B5E7F4FC801099592
:100AA000009709F0C7C0F80100851185EACF97309B
:100AB00009F445C1983021F481E08093F100B6C07B
:100AC000993009F0B3C0837009F039C1E3E2F1E075
:100AD00081E031E096E32081211109C08EE7809307
:100AE000EA001092EA008F8980935B029FC0809396
:100AF000E9003093EB0021912093EC009093ED00FE
:100B00008F5F873041F7EACF8B8D9C8D1092E90083
:100B10001092E7011092E6019093E5018093E401C1
:100B2000898D811153C08E899D89913A49F4813212
:100B300009F005C147E050E060E171E080E0BBC032
:100B4000913209F0FCC0833269F48F89988DA0E05E
:100B5000B0E080930C0190930D01A0930E01B0932F
:100B60000F0164C0803269F48091E80082FFFCCFFD
:100B700067E080E191E00E94DE018BEF8093E80066
:100B800055C0823209F052C08F8980931701EEEF71
:100B9000FFE7859194918B3F9C4D19F0E0E0F8E0E0
:100BA00002C0EEEFFAE08091100190911101A09146
:100BB0001201B0911301803B9440A105B10509F0E9
:100BC0009EC08091170180FF79C099C00E947E0F5E
:100BD000FC01028113810115110509F4B0C0D8018F
:100BE000ED91FC910190F081E02DBE016B5E7F4F95
:100BF000C801099581111AC0F80100851185EBCF54
:100C0000F1E0FF1609F44EC0F3E0FF1298C08F899F
:100C1000882309F44AC0823089F440E860E185EC19
:100C200091E00E948201882309F489C08EEF8093AD
:100C3000E80088C018161906CCF381C0813029F469
:100C400040E86BE089EB91E0ECCF833009F077C0AE
:100C50000E947E0FDC011296ED90FC9013978E019E
:100C60000F5F1F4F6801E114F10479F0D701ED9196
:100C7000FC910680F781E02DB801C7010995080FA6
:100C8000111DF701E084F184EECFD8011C92F6012A
:100C900001900020E9F73197BF016C197D0940E010
:100CA000C601BFCF67EA71E002C063EA71E0FB01F1
:100CB000449150E080E80E94B701B8CFEE3F2AE0AF
:100CC000F20751F0808191818737A7E79A0721F0D9
:100CD0009093FF0A8093FE0A87E797E791838083CA
:100CE000809160008093E8019BE088E10FB6F89462
:100CF000A895809360000FBE9093600097CF80818D
:100D000091818737974709F091CFA895809160002E
:100D10008861809360008091E80180936000EE3FDD
:100D2000BAE0FB0739F08091FE0A9091FF0A9183A7
:100D300080837CCF1092FF0A1092FE0A77CF81E267
:100D40008093EB006C960FB6F894DEBF0FBECDBF5C
:100D5000DF91CF91FF91EF91BF91AF919F918F91D3
:100D60007F916F915F914F913F912F911F910F91C3
:100D7000FF90EF90DF90CF900F900FBE0F901F90DD
:100D800018956115710579F0FB0101900020E9F7D4
:100D90003197AF01461B570BDC01ED91FC910280AE
:100DA000F381E02D099480E090E008958F929F9266
:100DB000AF92BF92EF92FF920F931F93CF93DF9367
:100DC000CDB7DEB7A1970FB6F894DEBF0FBECDBF8B
:100DD0007C01FA01CB0119A2223008F42AE08E012D
:100DE0000F5D1F4F822E912CA12CB12CBF01A501AC
:100DF00094010E947922F901CA01015011096A3057
:100E000014F4605D01C0695CD8016C93232B242B22
:100E1000252B61F7B801C7010E94C106A1960FB644
:100E2000F894DEBF0FBECDBFDF91CF911F910F9120
:100E3000FF90EF90BF90AF909F908F9008957F921A
:100E40008F929F92AF92BF92CF92DF92EF92FF92DA
:100E50000F931F93CF93DF938C016A017B01722E56
:100E60009A01AB01C701B6010E948024882319F0C2
:100E700069E671E027C046015701E894B7F82FEF03
:100E80003FEF4FE75FE7C501B4010E948024811165
:100E90000DC02FEF3FEF4FE75FE7C501B4010E94A0
:100EA000D32018161CF46DE671E00CC02FEF3FEF55
:100EB0004FE75FE4C701B6010E943524181694F489
:100EC00061E771E0C801DF91CF911F910F91FF9011
:100ED000EF90DF90CF90BF90AF909F908F907F90DA
:100EE0000C94C1062FEF3FEF4FE75FECC701B6014F
:100EF0000E94D32087FDE4CF20E030E0A901C701A4
:100F0000B6010E94D32087FF0FC0D801ED91FC915C
:100F10000190F081E02D6DE2C8010995EC01F7FA2E
:100F2000F094F7F8F09402C0C0E0D0E0B12C60E09B
:100F300070E080E09FE37B1441F020E030E040E28D
:100F400051E40E943223B394F6CFA70196010E9488
:100F5000AB226B017C010E94AB234B015C012AE0B8
:100F6000AB01BC01C8010E94D606C80FD91F77206B
:100F7000E9F1C501B4010E94D8209B01AC01C70171
:100F8000B6010E94AA226B017C01D801ED91FC916F
:100F90000190F081E02D6EE2C8010995C80FD91FBC
:100FA00020E030E040E251E4C701B6010E9439215F
:100FB0004B015C010E94AB236B01E12CF12C2AE078
:100FC000B701A601C8010E94D606C80FD91FC701E4
:100FD000B6010E94D8209B01AC01C501B4010E945A
:100FE000AA226B017C017A947110DACFCE01DF91D5
:100FF000CF911F910F91FF90EF90DF90CF90BF9016
:10100000AF909F908F907F9008950C94C1061F928F
:101010000F920FB60F9211242F933F934F935F932C
:101020006F937F938F939F93AF93BF93EF93FF93B0
:1010300087EA92E00E945C02FF91EF91BF91AF912D
:101040009F918F917F916F915F914F913F912F91E0
:101050000F900FBE0F901F9018951F920F920FB612
:101060000F9211242F938F939F93EF93FF93E0910F
:10107000B702F091B8028081E091BD02F091BE020A
:1010800082FD12C090818091C0028F5F8F7320918A
:10109000C102821751F0E091C002F0E0E955FD4F26
:1010A000958F8093C00201C08081FF91EF919F9145
:1010B0008F912F910F900FBE0F901F901895CF9387
:1010C000DF931F92CDB7DEB76983DC01ED91FC9110
:1010D0000280F381E02D41E050E0BE016F5F7F4F61
:1010E00009950F90DF91CF91089583E08093E900F7
:1010F0008091F200882319F08AE38093E800089534
:10110000FC018485958597FD0BC09FB7F89482E01C
:101110008093E9008091F2009FBF90E001960895CE
:101120009FB7F89482E08093E9008091F2009FBF1E
:1011300090E0089585ED8093BC008091BC0084FD13
:10114000FCCF10928202089540913202262F30E0A7
:10115000240F311D21323105DCF42091820224302C
:10116000C9F4FC0180E090E0861758F43091320217
:101170002191DC01AE5EBD4FA30FB11D2C930196F2
:10118000F3CF80913202680F6093320280E00895BD
:1011900081E0089582E00895089508950895E0910A
:1011A0007D0180917C01E81730F4F0E0EE50FE4FB5
:1011B000808190E008958FEF9FEF089590917D01D9
:1011C00080917C01981750F4E92FF0E0EE50FE4F2B
:1011D000208130E09F5F90937D0102C02FEF3FEFB1
:1011E000C901089580917C0190E020917D01821BCE
:1011F00091090895CF92DF92EF92FF920F931F9380
:10120000CF93DF937C01CB018A01209183022223BB
:1012100089F0EB016B01C40ED51ECC15DD0569F01C
:101220006991D701ED91FC910190F081E02DC7010A
:101230000995F3CF642F0E94A408C801DF91CF91D4
:101240001F910F91FF90EF90DF90CF900895CF9373
:10125000DF931F92CDB7DEB76983209183022223EB
:10126000D1F02091A602203240F021E030E0FC01D4
:101270003383228380E090E015C080918402E82FC0
:10128000F0E0EB57FD4F998190838F5F809384024C
:101290008093A60205C061E0CE0101960E94A408D9
:1012A00081E090E00F90DF91CF910895089580E064
:1012B00090E008950E946D0F90E008950F931F93A2
:1012C000CF93DF931F92CDB7DEB78C01FC018485ED
:1012D000958597FF0EC0CE0101960E943F0F0197A2
:1012E00019F4898190E002C08FEF9FEFF801958794
:1012F0008487F801848595850F90DF91CF911F91A8
:101300000F910895CF93DF931F92CDB7DEB7FC0105
:101310008485958597FD05C02FEF3FEF358724879E
:101320000BC0CE0101960E943F0F019719F48981ED
:1013300090E002C08FEF9FEF0F90DF91CF91089563
:101340001F920F920FB60F9211242F933F934F933A
:101350005F936F937F938F939F93AF93BF93EF931D
:10136000FF938091550287FF05C01092850010926F
:1013700084001BC020915502022E000C330B80917B
:10138000C40390E02817390784F480915502082E91
:10139000000C990BFC01EE0FFF1F8E0F9F1FFC012D
:1013A000E056FC4F808186FD15C0809155028F5F0D
:1013B0008093550220915502022E000C330B809130
:1013C000C40390E028173907C4F4809155028C308B
:1013D00064F113C080915502082E000C990BFC019A
:1013E000EE0FFF1F8E0F9F1FFC01E056FC4F808108
:1013F00060E08F730E94CF0FD8CF809184009091CE
:101400008500049680349C4918F480E49CE905C06A
:101410008091840090918500049690938900809338
:1014200088008FEF809355023BC02091840030915B
:10143000850080915502082E000C990BFC01EE0FDF
:10144000FF1F8E0F9F1FFC01E056FC4F8181928190
:10145000820F931F9093890080938800809155029A
:10146000082E000C990BFC01EE0FFF1F8E0F9F1F23
:10147000FC01E056FC4F808186FF12C0809155022E
:10148000082E000C990BFC01EE0FFF1F8E0F9F1F03
:10149000FC01E056FC4F808161E08F730E94CF0F0A
:1014A000FF91EF91BF91AF919F918F917F916F913C
:1014B0005F914F913F912F910F900FBE0F901F9012
:1014C00018951F920F920FB60F9211242F933F93EE
:1014D0004F935F936F937F938F939F93AF93BF933C
:1014E000EF93FF938091B900887F803609F49CC008
:1014F00068F5883209F45BC090F4803109F454C077
:1015000038F4882309F4F6C0883009F44DC0F6C0D9
:10151000883109F44CC0803209F45DC0EFC08034DA
:1015200009F468C048F4803309F455C0883309F0E1
:10153000E5C080938002D8C0803509F44FC088355B
:1015400009F45DC0883409F0D9C0D6C0883909F4DF
:10155000C7C0A8F4883709F467C038F4883609F49E
:1015600063C0803709F460C0C9C0883809F4B8C0C6
:10157000803909F45FC0803809F0C0C05BC0803B8F
:1015800009F486C038F4803A09F466C0883A09F450
:101590007FC0B4C0803C09F4A7C0883C09F4A4C053
:1015A000883B09F48AC0AAC080915D0210C0909166
:1015B0007F0280917E02981770F5E0917F0281E0B2
:1015C0008E0F80937F02F0E0E25AFD4F808180937E
:1015D000BB0085EC86C0809380028EC0E0917F02C4
:1015E00081E08E0F80937F028091BB00F0E0E25A91
:1015F000FD4F808390917F0280917E026EC0E091CA
:101600007F0281E08E0F80937F028091BB00F0E02B
:10161000E25AFD4F80838091810281116DC081E08B
:1016200080935C0284EA61C083E08093820210921E
:101630005402CFCF80915402803208F051C0E09123
:10164000540281E08E0F809354028091BB00F0E041
:10165000EC5CFD4F8083BDCF85EC8093BC00109285
:10166000820280915402803230F4E0915402F0E022
:10167000EC5CFD4F10826091540270E0E0917801C3
:10168000F091790184E392E009951092540236C0FA
:1016900084E0809382021092330210923202E09131
:1016A0007A01F0917B01099580913202811105C088
:1016B00081E08093320210921202E091330281E0C5
:1016C0008E0F80933302F0E0EE5EFD4F80818093B9
:1016D000BB009091330280913202981708F479CFC1
:1016E00085E88093BC000AC085EC8093BC00109212
:1016F000820204C0109280020E949A08FF91EF912A
:10170000BF91AF919F918F917F916F915F914F9119
:101710003F912F910F900FBE0F901F9018952F9211
:101720003F924F925F926F927F928F929F92AF9271
:10173000BF92CF92DF92EF92FF920F931F93CF93BE
:10174000DF93CDB7DEB728970FB6F894DEBF0FBE94
:10175000CDBFD82EC62E4F8349018FB7F894409045
:1017600056025090570260905802709059028FBFF5
:101770002D2C220CE12C1886FF24F394A42EB12CDE
:1017800033243A94980140E050E02B833C834D830E
:101790005E833F81E31608F08CC0F0928302D09202
:1017A000A502109284021092A6026C2D84E993E0A7
:1017B0000E94270981E00E94170EF0928302D092C6
:1017C000A502109284021092A602809182028111D9
:1017D000FCCFC5018E1991098132910514F080E288
:1017E00090E0813208F080E2F0928202F092810271
:1017F0003092800210927F029FEF980F90937E02AA
:10180000F0925D0290915D02922990935D02909119
:101810005C02913071F410925C0290915D029093A1
:10182000BB009091BC0093FDF8CF45EC4093BC0009
:1018300003C055EE5093BC00909182029130E1F3C9
:1018400090917F02981710F480917F02EEE5F2E00C
:10185000A2EFB1E090E0981721F021912D939F5FC6
:10186000FACF10927D0190937C0190917C01809140
:101870007D01981709F456C00115110509F43FC000
:101880002FB7F8948091560290915702A091580278
:10189000B09159022FBF84199509A609B7092B8168
:1018A0003C814D815E8182179307A407B50738F10B
:1018B00039C001151105E1F12FB7F8948091560256
:1018C00090915702A0915802B09159022FBF8419EC
:1018D0009509A609B70920E030E080179107A20713
:1018E000B30730F14F81242F30E05885852F550FF5
:1018F000990B82179307E4F48FEF888719C0D401FE
:10190000E885AE0FB11DE7FDBA95BA83A98384E9D6
:1019100093E00E94DE08A981BA818C93B885BF5FED
:10192000B887A3CF8F81813208F080E2E80E31CFF3
:10193000888528960FB6F894DEBF0FBECDBFDF9125
:10194000CF911F910F91FF90EF90DF90CF90BF90BC
:10195000AF909F908F907F906F905F904F903F904F
:101960002F900895BF92CF92DF92EF92FF920F9344
:101970001F93CF93DF9300D0CDB7DEB7F82EE62EBE
:10198000C42EB22ED02E08EE13E09E012E5F3F4FE4
:1019900041E00E948F0B882341F14C2D50E04B1900
:1019A00051094F5F5F4F81E090E002C0880F991F9F
:1019B000BA94E2F70197042E01C0880F0A94EAF75F
:1019C0002D2D01C0220F4A95EAF7382F30959A81C4
:1019D00093238223892B8A838983AE014F5F5F4FD4
:1019E0006E2D8F2D0E94BA0E01C080E00F900F90D7
:1019F000DF91CF911F910F91FF90EF90DF90CF90EB
:101A0000BF900895AF92BF92DF92EF92FF920F9333
:101A10001F93CF93DF93EC017B018B015C0184E08A
:101A2000A80EB11CF801D1908F01CE010E94FA21BD
:101A3000D81621F06D2DCE010E9402222196CA15E2
:101A4000DB0581F7C701DF91CF911F910F91FF90C7
:101A5000EF90DF90BF90AF900895CF92DF92EF921A
:101A6000FF920F931F93CF93DF93EB017B0124E051
:101A7000E20EF11C8B016C01C61AD70AC601800F59
:101A8000911F0E94FA21F80181938F01EE15FF0545
:101A9000A9F7CE01DF91CF911F910F91FF90EF90A9
:101AA000DF90CF9008951F920F920FB60F921124DE
:101AB0002F933F938F939F938091F0019091F10129
:101AC00001969093F1018093F0012091EE01309105
:101AD000EF012817390754F41092F1011092F00128
:101AE0001092EF011092EE012B9A0BC081309105FC
:101AF00011F4299A06C08230910511F0892B09F45E
:101B000029988091EC019091ED0101969093ED015F
:101B10008093EC012091EA013091EB0128173907FD
:101B200054F41092ED011092EC011092EB0110921E
:101B3000EA012E9A0BC08130910511F42A9A06C051
:101B40008230910511F0892B09F42A989F918F9189
:101B50003F912F910F900FBE0F901F901895CF922D
:101B6000DF92EF92FF920F931F93CF93DF938C013D
:101B7000EB016A014617570720F48D2FEA01C62EA4
:101B8000D82EF801118210821382128215821482DB
:101B900040E050E068E671E0C8010E94E103E09097
:101BA000C903F090CA03CE15DF05B8F5CE14DF04E3
:101BB00008F47601E091C503F091C603EE0DFF1D18
:101BC000D08010826091C5037091C6036C0F7D1F99
:101BD0006115710561F0FB0101900020E9F7319773
:101BE000AF01461B570BC8010E94E1030EC0F8016C
:101BF00080819181009711F00E946C25F80111827B
:101C0000108215821482138212828091C5039091F2
:101C1000C603FC01EE0DFF1DD082C801DF91CF91FC
:101C20001F910F91FF90EF90DF90CF900895282F94
:101C30003091A602313208F04AC0809182028111AF
:101C4000FCCF9091A50242E0409382022093810252
:101C50002FEF2093800210927F0230937E02E5E8FE
:101C6000F2E0AEE5B2E020E0321721F041914D9371
:101C70002F5FFACF10925D0220915D02990F922B97
:101C800090935D0290915C02913061F410925C023D
:101C900090915D029093BB009091BC0093FDF8CFB2
:101CA00095EC01C095EE9093BC0090918202923029
:101CB000E1F3909180029F3F79F080918002803221
:101CC00041F080918002803331F084E005C081E0F2
:101CD00003C082E001C083E0109284021092A60249
:101CE0001092830208950F931F93CF93DF93CEEC4E
:101CF000D3E008EE13E02FEC33E042E065E48881A6
:101D00000E948F0B89819A81982789279827DF91D4
:101D1000CF911F910F9108950F931F93CF93DF934E
:101D2000CEECD3E008EE13E02FEC33E042E063E4C6
:101D300088810E948F0B89819A819827892798270B
:101D4000DF91CF911F910F9108950F931F93CF9320
:101D5000DF93EC0122E00E941F078C0166E671E030
:101D6000CE010E94C106800F911FDF91CF911F917C
:101D70000F910895CF93DF93EA0191E0909383024E
:101D80008093A502109284021092A60284E993E047
:101D90000E942709688184E993E00E94270981E075
:101DA0000E94170E91E0811190E0892FDF91CF9171
:101DB00008952091C9033091CA038217930760F4F4
:101DC0002091C5033091C6032115310529F0F90191
:101DD000E80FF91F8081089580E00895CF93DF9385
:101DE000682F8091C9039091CA03892B79F0C09123
:101DF000C503D091C603062E000C770BCE010E94BE
:101E0000C926009719F08C1B9D0B02C08FEF9FEF26
:101E1000DF91CF9108950F931F93CF93DF9300D05D
:101E2000CDB7DEB789831A820091C9031091CA0326
:101E30000F5F1F4FB80185EC93E00E94BA0388231F
:101E4000A1F02091C5033091C6038091C903909100
:101E5000CA03BE016F5F7F4F820F931F0E94D4267B
:101E60001093CA030093C90381E00F900F90DF9194
:101E7000CF911F910F91089522E00C941F0720919C
:101E80005B02211103C08FEF9FEF08955FB7F894B5
:101E900022E02093E9002091F20030E012161306B0
:101EA00014F421E030E0422FFC0184E6415038F088
:101EB000289880935A029091F1009193F7CF2115C1
:101EC000310521F08091F200882319F05FBFC9012C
:101ED00008958BE68093E800F9CF2FB7F89483E05C
:101EE0008093E9009091E800892F807295FF04C0EB
:101EF0009091F20080E4891B2FBF08958091E60342
:101F000081110DC082E08093E20384E08093E303BB
:101F10001092E5031092E40381E08093E60382EEE1
:101F200093E0089590E0FC013197EF30F105B0F5B2
:101F3000E15AFF4F0C94BA24809180008F7703C040
:101F4000809180008F7D8093800008958091800033
:101F5000877FF9CF84B58F7702C084B58F7D84BD2C
:101F60000895809190008F7707C0809190008F7DB9
:101F700003C080919000877F8093900008958091A6
:101F8000C0008F7703C08091C0008F7D8093C00018
:101F900008958091C200877F8093C20008951F93A7
:101FA000CF93DF93282F30E0F901E05DFD4F84915E
:101FB000F901EF5EFD4FD491F901EE50FE4FC4914F
:101FC000CC23C1F0162F81110E94920FEC2FF0E06C
:101FD000EE0FFF1FEC51FE4FA591B4919FB7F894FF
:101FE000111104C08C91D095D82302C0EC91DE2B46
:101FF000DC939FBFDF91CF911F910895CF93DF9323
:1020000090E0FC01EF5EFD4F2491FC01EE50FE4F8D
:102010008491882361F190E0880F991FFC01EA52B6
:10202000FE4FC591D491FC01EC51FE4FA591B491A6
:10203000611109C09FB7F894888120958223888315
:10204000EC912E230BC0623061F49FB7F894888125
:10205000322F309583238883EC912E2B2C939FBFB6
:1020600006C08FB7F894E8812E2B28838FBFDF91AD
:10207000CF9108953FB7F8948091DE039091DF03EC
:10208000A091E003B091E10326B5A89B05C02F3FC6
:1020900019F00196A11DB11D3FBFBA2FA92F982F8E
:1020A0008827820F911DA11DB11DBC01CD0142E009
:1020B000660F771F881F991F4A95D1F708958F9251
:1020C0009F92AF92BF92CF92DF92EF92FF926B01FD
:1020D0007C010E943A104B015C01C114D104E1045F
:1020E000F104F1F00E943A10DC01CB018819990942
:1020F000AA09BB09883E9340A105B10570F321E010
:10210000C21AD108E108F10888EE880E83E0981E13
:10211000A11CB11CC114D104E104F10419F7DDCFF5
:10212000FF90EF90DF90CF90BF90AF909F908F90F7
:1021300008951F920F920FB60F9211242F933F9381
:102140008F939F93AF93BF938091560290915702C4
:10215000A0915802B09159023091DD0323E0230F82
:102160002D3720F40196A11DB11D05C026E8230FCF
:102170000296A11DB11D2093DD038093560290931A
:102180005702A0935802B09359028091DE039091B8
:10219000DF03A091E003B091E1030196A11DB11D01
:1021A0008093DE039093DF03A093E003B093E103F9
:1021B000BF91AF919F918F913F912F910F900FBE43
:1021C0000F901F901895CF92DF92EF92FF920F938E
:1021D0001F93E82FF92F05C001501109210931097A
:1021E00061F1908196239417B9F305C0015011094C
:1021F0002109310911F1908196239413F7CFC12C55
:10220000D12CE12CF12C0AC08FEFC81AD80AE80AA9
:10221000F80A0C151D052E053F0579F080818623EF
:10222000841791F36C2D7D2D8E2D9F2D1F910F9175
:10223000FF90EF90DF90CF90089560E070E080E035
:1022400090E01F910F91FF90EF90DF90CF90089555
:10225000CF93DF93CDB7DEB72B970FB6F894DEBFE1
:102260000FBECDBF789484B5826084BD84B5816093
:1022700084BD85B5826085BD85B5816085BD809151
:102280006E00816080936E001092810080918100C9
:1022900082608093810080918100816080938100C1
:1022A00080918000816080938000809191008260A5
:1022B0008093910080919100816080939100809142
:1022C00090008160809390008091C1008460809331
:1022D000C1008091C10082608093C1008091C100E3
:1022E00081608093C1008091C30081608093C300AE
:1022F0008091C00082608093C0008091C2008160A4
:102300008093C20080917A00846080937A008091EB
:102310007A00826080937A0080917A008160809355
:102320007A0080917A00806880937A0010925B0234
:1023300010927701109276018091D700816080938E
:10234000D70080EA8093D80089B5806189BD89B5BE
:10235000826089BD09B400FEFDCF61E070E080E0DD
:1023600090E00E945F108091D8008F7C8061809304
:10237000D8008091E000807F8093E0008091E100B0
:102380008E7E8093E1008DE08093E200559A209A42
:10239000E091B702F091B80282E08083E091B3024D
:1023A000F091B4021082E091B502F091B60280E1A2
:1023B00080831092BF02E091BB02F091BC0286E0E4
:1023C0008083E091B902F091BA02808180618083BC
:1023D000E091B902F091BA02808188608083E09137
:1023E000B902F091BA02808180688083E091B902DD
:1023F000F091BA0280818F7D80838FEF9FEF909361
:1024000051038093500310927D0110927C01109231
:1024100084021092A6021092820281E080938102CF
:1024200010925C0261E082E00E94CF0F61E083E0E5
:102430000E94CF0F8091B9008E7F8093B900809168
:10244000B9008D7F8093B90088E48093B80085E45B
:102450008093BC008CEC98E090937B0180937A0190
:102460008DEC98E0909379018093780161E08FE0A2
:102470000E94FE0F61E08EE00E94FE0F60E08EE0A1
:102480000E94CF0F61E080E10E94FE0F61E08AE0D0
:102490000E94FE0F60E08AE00E94CF0F61E083E1BE
:1024A0000E94FE0F61E087E00E94FE0F60E088E07E
:1024B0000E94FE0F8091CB038C3008F051C061E088
:1024C00085E00E94FE0F8091CB03E82FF0E09F0192
:1024D000220F331FE20FF31FE056FC4F9081907CD8
:1024E000956090831092CC031092CD036CE00E9413
:1024F0009A242CE0829FB001112440E050E09B011F
:10250000240F351FF901EE0FFF1F2E0F3F1FF9019A
:10251000E056FC4F908196FD16C04F5F5F4F4C30E8
:10252000510569F781110FC01092800082E08093FD
:1025300081001092850010928400B19A80916F0002
:10254000826080936F00E091CB03F0E0CF01880FB1
:10255000991FE80FF91FE056FC4F8081806480834B
:1025600060E08FE00E94CF0F60E080E10E94CF0F1B
:1025700064E170E080E090E00E945F1061E08FE035
:102580000E94CF0F61E080E10E94CF0F64E170E014
:1025900080E090E00E945F1060E08FE00E94CF0F2B
:1025A00060E080E10E94CF0F8CE08093B800F89447
:1025B0001092900010929100109295001092940049
:1025C0008FE391E09093990080939800809191001F
:1025D0008860809391008091910081608093910048
:1025E00080917100826080937100789401E023E013
:1025F00042E06BE68091CE030E94B20C00E022E044
:1026000044E06BE18091CE030E94B20C22E044E0F2
:102610006CE18091CE030E94B20CF090CE0308EEE4
:1026200013E09E012F5F3F4F41E06BE68F2D0E942C
:102630008F0B89818F7B89838B87AE01455F5F4FCD
:102640006BE68F2D0E94BA0E00E022E044E06BE1C1
:102650008091CE030E94B20C01E022E044E06CE1E4
:102660008091CE030E94B20C03E023E042E06AE1D5
:102670008091CE030E94B20C68EA71E080E090E0A5
:102680000E942D0D6CEA71E08AE090E00E942D0D11
:1026900060EA71E084E190E00E942D0D6EE171E04E
:1026A0008EE190E00E942D0D66EC71E088E290E0F2
:1026B0000E942D0D62E971E082E390E00E942D0DF1
:1026C0004091A8015091A9016091AA017091AB01BC
:1026D00084E493E00E94A50E4091AC015091AD01BD
:1026E0006091AE017091AF0184E493E00E94A50E69
:1026F0004091A0015091A1016091A2017091A301AC
:1027000084E493E00E94A50E40E050E060EB70E4AA
:1027100084E493E00E94A50E4091C6015091C70148
:102720006091C8017091C90184E493E00E94A50EF4
:1027300040919201509193016091940170919501A3
:1027400087EA92E00E94A50E4091A8015091A9014C
:102750006091AA017091AB0187EA92E00E94A50EF8
:102760004091AC015091AD016091AE017091AF010B
:1027700087EA92E00E94A50E4091A0015091A1012C
:102780006091A2017091A30187EA92E00E94A50ED8
:1027900040E050E060EB70E487EA92E00E94A50E12
:1027A0004091C6015091C7016091C8017091C90163
:1027B00087EA92E00E94A50E409192015091930108
:1027C000609194017091950187EA92E00E94A50EB4
:1027D00010927F0110927E019FE0C92ED12C23E43C
:1027E000622E22E0722E34E2A32E32E0B32E45E0B8
:1027F000842E42E0942E5BECE52E59E3F52E0091F9
:102800007E0110917F01043F81E018070CF065C044
:10281000C801B6010E94A624BC01892B01F5F30171
:102820008491F5015490F4014490442099F0811171
:102830000E94920FE42DF0E0EE0FFF1FED5AFE4FC5
:10284000A591B4918C91582291E080E009F490E038
:10285000692F782FF1E06F2783E10E94CF0F0E944C
:102860008C0E092E000CAA0BBB0B409186015091D7
:1028700087016091880170918901840F951FA61FBF
:10288000B71F8093860190938701A0938801B0932E
:1028900089010E94730E092E000CAA0BBB0B4091FC
:1028A0008A0150918B0160918C0170918D01840F90
:1028B000951FA61FB71F80938A0190938B01A09349
:1028C0008C01B0938D01C7010197F1F70F5F1F4F86
:1028D00010937F0100937E0192CF61E083E10E941B
:1028E000CF0F60918601709187018091880190914E
:1028F0008901B4EFCB2EDD24D394E12CF12CA70178
:1029000096010E9410222093860130938701409304
:1029100088015093890160918A0170918B018091A7
:102920008C0190918D01A70196010E9410222093A5
:102930008A0130938B0140938C0150938D010E944A
:102940003A10DC01CB018056904FAF4FBF4F8093C0
:10295000B0019093B101A093B201B093B3010E9472
:102960003A106093E0017093E1018093E20190934B
:10297000E3018091DF01811127C0C090DB01D0907D
:10298000DC01E090DD01F090DE0120E030E040E08D
:1029900050ECC701B6010E9435241816ACF420E0B3
:1029A00030E040EA50E4C701B6010E94D32087FF1F
:1029B0000BC0C092D701D092D801E092D901F09219
:1029C000DA0181E08093DF01C090D701D090D80177
:1029D000E090D901F090DA0120E030E040EF51E4DE
:1029E000C701B6010E943524181674F020E030E0CB
:1029F00040EF51ECC701B6010E94D32087FD04C00F
:102A00008091DF0181111AC01092D3011092D4017C
:102A10001092D5011092D6011092CF011092D001E0
:102A20001092D1011092D2011092DF011092CB01CD
:102A30001092CC011092CD011092CE018091CA016A
:102A4000882309F4FAC060E087E00E94CF0F61E0BC
:102A500087E00E94CF0F83E290E00197F1F760E0FA
:102A600087E00E94CF0FE9E1F2E06491EAEFF1E044
:102A7000E491F0E0EE0FFF1FED5AFE4F8591949127
:102A800000E412E42FE030E0462F0E94E3106115CD
:102A900071058105910549F0DC01CB010196A11D6D
:102AA000B11DBC01CD019F7003C060E070E0CB019F
:102AB0000E94DA2026E933E44BE05DE30E943921ED
:102AC00020E030E040E05FE30E9439210E94A4232F
:102AD0006D307105810591052CF080E090E0A0E05B
:102AE000B0E40EC068307105810591052CF480E0DA
:102AF00090E0A0E1B1E404C080E090E0A0EBB0E49D
:102B00008093080190930901A0930A01B0930B01EF
:102B1000C0900401D0900501E0900601F0900701FB
:102B20008090080190900901A0900A01B0900B01DB
:102B3000A5019401C701B6010E943524181684F43A
:102B40002DEC3CEC4CE45DE3C701B6010E94AA22E7
:102B5000609304017093050180930601909307012F
:102B6000C0900401D0900501E0900601F0900701AB
:102B7000A7019601C501B4010E943524181684F4FA
:102B80002DEC3CEC4CE45DE3C701B6010E94AB22A6
:102B900060930401709305018093060190930701EF
:102BA000C090C601D090C701E090C801F090C90163
:102BB0008090D3019090D401A090D501B090D6011F
:102BC000C701B6019058A50194010E94D32087FF48
:102BD00016C02AE037ED43E25CE360910401709196
:102BE000050180910601909107010E94AA2260933D
:102BF0000401709305018093060190930701A501DC
:102C00009401C701B6010E9435241816B4F42AE0D5
:102C100037ED43E25CE3609104017091050180911E
:102C20000601909107010E94AB226093040170930A
:102C30000501809306019093070187EA92E00E94C4
:102C4000460218161906A4F511E087EA92E00E94E0
:102C50004602181619062CF4809185018B3309F071
:102C600073C780918401882319F18BE30E940B0FB5
:102C700080E090E00E94D90E833709F48AC70CF0F7
:102C800073C7833611F40C94911E8B3609F4A1C7D7
:102C900040E050E068E671E085EC93E00E94E103DB
:102CA000109285011092840110927F0110927E0192
:102CB00080917E0190917F018A31910534F40196D3
:102CC00090937F0180937E010CC010929701109227
:102CD00096011092CA018AE590E0909301018093D9
:102CE00000016091000170910101603292E079076A
:102CF0000CF040C077FD06C0653B71052CF064EB1D
:102D000070E002C060E070E08091CC03A8E8B0E021
:102D10006D01C81AD10887FDD394D601AA0FBB1F35
:102D2000AA0FBB1F6D01BB0FEE08FF088091CD03FA
:102D300008E512E0081B110987FD1395000F111F0C
:102D4000000F111F012E000C220B330BA90198015B
:102D50002C193D094E095F09DB010E943A2224EB40
:102D600030E040E050E00E941022C20ED31EE41E6C
:102D7000F51EB6018091CB038C3088F59091CC0381
:102D8000A8E8B0E0A91BB10997FDB395AA0FBB1F36
:102D9000AA0FBB1F6A177B078CF09091CD0328E523
:102DA00032E0291B310997FD3395220F331F220F83
:102DB000331FDB01261737070CF4D9011297AA0F2E
:102DC000BB1F2FB7F89490E0FC01EE0FFF1F8E0F92
:102DD0009F1FFC01E056FC4FB283A1832FBFB09030
:102DE000CA0161E06B2583E10E94CF0F08EE13E07A
:102DF0002FEC33E042E06FE38091CE030E948F0B13
:102E00008091CF039091D003982789279827893004
:102E1000A0E29A0714F088E090E2909391018093E9
:102E200090018091900190919101883F9F4D34F4E1
:102E300088EF9FED909391018093900160919001B4
:102E400070919101072E000C880B990B0E94DA20DB
:102E500020E030E240E056E40E9432230E94172333
:102E60002BE13FE245E652E40E9439216B017C01EF
:102E70006093DB017093DC018093DD019093DE01B0
:102E80000E948C0E8C010E94730E20918A01309159
:102E90008B01821B930BBC01990F880B990B0E942D
:102EA000DA202FEF35E042E058E30E9439212091EB
:102EB000D7013091D8014091D9015091DA010E9497
:102EC000AB222091860130918701021B130B1093D6
:102ED0008F0100938E0129EC35EE4FE75FE30E94EE
:102EE00039212B013C0127E137EB41ED59E3C701C3
:102EF000B6010E9439219B01AC01C301B2010E94BD
:102F0000AB226093D7017093D8018093D90190933D
:102F1000DA01C090D301D090D401E090D501F090B7
:102F2000D601B11011C38091970190ED980F809058
:102F3000040190900501A0900601B0900701943023
:102F400008F066C0803329F480E090E0A0E1B1E4AD
:102F500012C0813329F48BE794E1A2E0B1E40BC005
:102F6000823329F480E090E0A8EEB0E404C080E071
:102F700090E0ACECB0E48093080190930901A09339
:102F80000A01B0930B014090080150900901609034
:102F90000A0170900B012DEC3CEC4CE45DE3C301A5
:102FA000B2010E94AA22A50194010E94352418169C
:102FB00084F42DEC3CEC4CE45DE3C501B4010E94CB
:102FC000AB226093040170930501809306019093F6
:102FD00007018090040190900501A0900601B09037
:102FE00007012DEC3CEC4CE45DE3C301B2010E940F
:102FF000AB22A50194010E94D32087FF05C12DECCF
:103000003CEC4CE45DE3C501B4010E94AA226BC014
:103010009BEC980F943008F06FC0853329F480E062
:1030200090E0A4E9B0E412C0863329F480E090E097
:10303000A0E7B0E40BC0873329F484E19EEAA7E35C
:10304000B0E404C080E090E0A0E0B0E48093080128
:1030500090930901A0930A01B0930B0140900801DD
:103060005090090160900A0170900B012DEC3CEC2E
:103070004CE45DE3C301B2010E94AB22A5019401BF
:103080000E94D32087FF10C02DEC3CEC4CE45DE3A4
:10309000C501B4010E94AA22609304017093050146
:1030A00080930601909307018090040190900501A0
:1030B000A0900601B09007012DEC3CEC4CE45DE3E0
:1030C000C301B2010E94AA22A50194010E943524E5
:1030D00018160CF099C02DEC3CEC4CE45DE3C501F6
:1030E000B4010E94AB2260930401709305018093A8
:1030F00006019093070188C020E030E040EC50E4E6
:10310000C501B4010E94352418164CF42DEC3CEC9A
:103110004CE45DE3C501B4010E94AA2212C020E084
:1031200030E040EA50E4C501B4010E94D32087FF9B
:1031300011C02DEC3CEC4CE45DE3C501B4010E94F0
:10314000AB22609304017093050180930601909374
:1031500007010CC080E090E0A0EBB0E48093040194
:1031600090930501A0930601B093070120E030E0A1
:1031700040EB50E4609104017091050180910601DB
:10318000909107010E94D32081113EC020E030E0E1
:10319000A901C701B6010E94D32087FF16C026EA05
:1031A0003BE944EC5AE36091CB017091CC018091F2
:1031B000CD019091CE010E94AB226093CB01709320
:1031C000CC018093CD019093CE0120E030E0A901A5
:1031D000C701B6010E9435241816B4F426EA3BE96B
:1031E00044EC5AE36091CB017091CC018091CD0108
:1031F0009091CE010E94AA226093CB017093CC01E2
:103200008093CD019093CE01E09196018E2FEE0F29
:10321000990BAA0BBB0BFC01F097E930F10508F004
:10322000EFC0EA5AFF4F0C94BA248090920190901C
:103230009301A0909401B0909501A5019401C7015C
:10324000B60132C020E030E040E450E460919201E9
:103250007091930180919401909195010E94392180
:103260000CC06091920170919301809194019091B2
:1032700095019B01AC010E94AB2220E030E040E8C8
:103280005EE30CC020E030E040E85EE36091920134
:103290007091930180919401909195010E94392140
:1032A0004B015C01A70196010E94AB22209198017D
:1032B0003091990140919A0150919B010E943524CF
:1032C0001816B4F42DEC3CEC4CEC5DE36091BA01C3
:1032D0007091BB018091BC019091BD010E94AB2215
:1032E0006093BA017093BB018093BC019093BD01C0
:1032F000A5019401C701B6010E94AA2220919C0158
:1033000030919D0140919E0150919F010E94D320D8
:1033100087FF1AC12DEC3CEC4CEC5DE3DBC020E0F8
:1033200030E040E85EE304C020E030E040E05FE3EE
:103330006091920170919301809194019091950117
:1033400012C020E030E040E450E4609192017091BE
:10335000930180919401909195010E94392120E080
:1033600030E040E85EE30E9439214B015C0108C077
:103370008090920190909301A0909401B09095015B
:10338000A5019401C701B6010E94AA2220919801CB
:103390003091990140919A0150919B010E94D32054
:1033A00087FF16C02DEC3CEC4CEC5DE36091BA015C
:1033B0007091BB018091BC019091BD010E94AA2235
:1033C0006093BA017093BB018093BC019093BD01DF
:1033D000A5019401C701B6010E94AB2220919C0176
:1033E00030919D0140919E0150919F010E94352492
:1033F00018160CF0A9C02DEC3CEC4CEC5DE391C030
:103400002AE939E949E95EE3C701B6010E94AB2226
:103410002B013C018090980190909901A0909A0115
:10342000B0909B01A50194010E94D32087FF0FC09B
:1034300020E030E040E05FE36091BA017091BB01B1
:103440008091BC019091BD010E94AA221EC0A701DB
:1034500096016AE979E989E99EEB0E94AA229B011B
:10346000AC01C501B4010E94D32087FF17C020E042
:1034700030E040E05FE36091BA017091BB01809160
:10348000BC019091BD010E94AB226093BA01709380
:10349000BB018093BC019093BD0108C01092BA019A
:1034A0001092BB011092BC011092BD0180909C0152
:1034B00090909D01A0909E01B0909F01A501940164
:1034C000C301B2010E94D32087FF17C020E030E083
:1034D00040E05FE36091BE017091BF018091C00147
:1034E0009091C1010E94AA226093BE017093BF0116
:1034F0008093C0019093C10127C0A70196016AE99A
:1035000079E989E99EEB0E94AA229B01AC01C501E1
:10351000B4010E94D32087FF0FC020E030E040E0DC
:103520005FE36091BE017091BF018091C0019091F5
:10353000C1010E94AB22D8CF1092BE011092BF01F0
:103540001092C0011092C1012091CB013091CC01A9
:103550004091CD015091CE016091D7017091D80179
:103560008091D9019091DA010E94AA222091040150
:103570003091050140910601509107010E94AA2255
:103580004B015C016093C2017093C3018093C4013D
:103590009093C50120E030E040E251E4C701B6015C
:1035A0000E943524181654F020E030E040E251EC3F
:1035B000C701B6010E94D32087FF14C02FE832EC68
:1035C00045E75CE3C701B6010E943921A5019401DA
:1035D0000E94AB226093C2017093C3018093C40127
:1035E0009093C501C090C201D090C301E090C40186
:1035F000F090C5012091AC013091AD014091AE0138
:103600005091AF01C701B6010E9439212091CF012D
:103610003091D0014091D1015091D2010E94AB2252
:103620004B015C0120E030E048EC53E40E9435247B
:1036300018162CF480E090E0A8ECB3E417C020E06A
:1036400030E048EC53ECC501B4010E94D32087FD63
:1036500009C08092CF019092D001A092D101B09286
:10366000D2010CC080E090E0A8ECB3EC8093CF01D5
:103670009093D001A093D101B093D2012091A801E1
:103680003091A9014091AA015091AB01C701B60147
:103690000E9439212091CF013091D0014091D10178
:1036A0005091D2010E94AB224B015C012091A401F8
:1036B0003091A5014091A6015091A701C701B60123
:1036C0000E94AA222091A0013091A1014091A20163
:1036D0005091A3010E9439219B01AC01C501B401A5
:1036E0000E94AB224B015C0120E030E048EC53E447
:1036F0000E94352418162CF480E090E0A8ECB3E486
:1037000017C020E030E048EC53ECC501B4010E9442
:10371000D32087FD09C08092D3019092D401A0925A
:10372000D501B092D6010CC080E090E0A8ECB3ECDB
:103730008093D3019093D401A093D501B093D60187
:10374000C092A401D092A501E092A601F092A70137
:10375000C090D301D090D401E090D501F090D60173
:1037600020E030E040EA50E4C701B6010E94D320D7
:1037700087FF12C020E030E040EA50ECC701B601FC
:103780000E943524181644F41092D3011092D401EB
:103790001092D5011092D601C090D301D090D401DF
:1037A000E090D501F090D601A70196016091BE018D
:1037B0007091BF018091C0019091C1010E94AB2224
:1037C00060939C0170939D0180939E0190939F0153
:1037D000A70196016091BA017091BB018091BC0173
:1037E0009091BD010E94AB22609398017093990162
:1037F00080939A0190939B01809102019091030123
:10380000181619060CF448C18FE090E0909303015C
:10381000809302014091DB015091DC016091DD0158
:103820007091DE0187EA92E00E943C0F61E671E050
:1038300087EA92E00E9405084091D7015091D80193
:103840006091D9017091DA0187EA92E00E943C0F01
:1038500061E671E087EA92E00E9405084091C201AA
:103860005091C3016091C4017091C50187EA92E053
:103870000E943C0F61E671E087EA92E00E94050831
:10388000409104015091050160910601709107017A
:1038900087EA92E00E943C0F61E671E087EA92E0DD
:1038A0000E9405084091D3015091D4016091D50147
:1038B0007091D60187EA92E00E943C0F61E671E0C8
:1038C00087EA92E00E9405084091BE015091BF0135
:1038D0006091C0017091C10187EA92E00E943C0FA3
:1038E00061E671E087EA92E00E9405084091BA0122
:1038F0005091BB016091BC017091BD0187EA92E0DB
:103900000E943C0F6091B6017091B7018091B8019F
:103910009091B9012FE030E040E050E00E94792220
:103920003093B5012093B4014091DB015091DC014B
:103930006091DD017091DE0184E493E00E943C0F10
:1039400061E671E084E493E00E9405084091D701AC
:103950005091D8016091D9017091DA0184E493E02B
:103960000E943C0F61E671E084E493E00E94050848
:103970004091C2015091C3016091C4017091C50191
:1039800084E493E00E943C0F61E671E084E493E0FC
:103990000E940508409104015091050160910601C3
:1039A0007091070184E493E00E943C0F61E671E0AE
:1039B00084E493E00E9405084091D3015091D40122
:1039C0006091D5017091D60184E493E00E943C0F90
:1039D00061E671E084E493E00E9405084091BE0135
:1039E0005091BF016091C0017091C10184E493E0E6
:1039F0000E943C0F61E671E084E493E00E940508B8
:103A00004091BA015091BB016091BC017091BD0120
:103A100084E493E00E943C0F61E671E084E493E06B
:103A20000E9405084091B4015091B50160E070E03A
:103A30002AE084E493E00E94D60664E671E084E420
:103A400093E00E94050861E671E087EA92E00E9437
:103A500005084091B4015091B50160E070E02AE0A2
:103A600087EA92E00E94D6061092B6011092B70142
:103A70001092B8011092B9011092B5011092B401E0
:103A800063E671E087EA92E00E94C10666E671E0B3
:103A900087EA92E00E94C1068091020190910301A1
:103AA000019790930301809302010E943A100091C4
:103AB000B6011091B7012091B8013091B901C090C1
:103AC000E001D090E101E090E201F090E3010C19F7
:103AD0001D092E093F09DC01CB01800F911FA21F98
:103AE000B31F8093B6019093B701A093B801B09330
:103AF000B9010E943A106093E0017093E101809354
:103B0000E2019093E3010E943A100091B0011091FC
:103B1000B1012091B2013091B301601771078207A2
:103B2000930788F3D901C8018056904FAF4FBF4F1C
:103B30008093B0019093B101A093B201B093B3010F
:103B40000E94EB020C94AF1487EA92E00E942402D8
:103B5000809385018B3329F00E940B0F1092840112
:103B600074C81093840171C8853709F4F4C00CF44B
:103B7000B6C0863709F08CC881E090E00E94D90E6B
:103B80008093970182E090E00E94D90E8093960185
:103B90007FC88BE30E94EE0EAC0161E070E0CE01C5
:103BA00001960E94AF0DCE0101960E94AF036F8374
:103BB000788789879A87BE01695F7F4F8EE190E0A1
:103BC0000E94020DCE0101960E940C0410929701F2
:103BD0005FC88CE20E94EE0E909383018093820175
:103BE000AC0161E070E0CE0101960E94AF0DCE0104
:103BF00001960E94AF036093A8017093A90180937E
:103C0000AA019093AB01CE0101960E940C04009191
:103C10008201109183010F5F1F4F8091C903909122
:103C2000CA030817190788F4E090C503F090C6038B
:103C30006CE270E0C701800F911F0E94C9260097B7
:103C400021F0AC014E195F0902C04FEF5FEF5093B6
:103C5000810140938001B801CE0101960E94AF0D11
:103C6000CE0101960E94AF036093AC017093AD0149
:103C70008093AE019093AF01CE0101960E940C0497
:103C80008BE30E94EE0E60918001709181016F5F65
:103C90007F4FAC01CE0101960E94AF0DCE0101967F
:103CA0000E94AF036093A0017093A1018093A201D1
:103CB0009093A301CE0101960E940C0468EA71E082
:103CC00080E090E00E94020D6CEA71E08AE090E0F2
:103CD0000E94020D60EA71E084E190E01EC0409114
:103CE000C9035091CA0361E070E0CE0101960E94C1
:103CF000AF0DCE0101960E94AF03609392017093C5
:103D000093018093940190939501CE0101960E94B6
:103D10000C0462E971E088E290E00E94020D0C94CC
:103D200048164091C9035091CA0361E070E0CE018A
:103D300001960E94AF0DCE0101960E94AF030E9432
:103D4000A4237093010160930001CE0101960E94AB
:103D50000C040C94481681E090E00E94D90E813347
:103D600029F481E08093CA010C944816803311F045
:103D70000C9448161092CA010C94481685EC93E0F6
:103D80000C940C041092AA021092A90288EE93E0FF
:103D9000A0E0B0E08093AB029093AC02A093AD02A0
:103DA000B093AE022FE231E03093A8022093A70235
:103DB0002DEC30E03093B4022093B3022CEC30E0D1
:103DC0003093B6022093B50228EC30E03093B8026D
:103DD0002093B70229EC30E03093BA022093B90265
:103DE0002AEC30E03093BC022093BB022EEC30E092
:103DF0003093BE022093BD021092C0021092C10205
:103E00001092C2021092C30210924703109246030E
:103E10008093480390934903A0934A03B0934B03C4
:103E200021E431E030934503209344032FEF3FEF2B
:103E300030935103209350031092970310929603EE
:103E40008093980390939903A0939A03B0939B0354
:103E500083E591E0909395038093940388E68093A3
:103E6000CE038091C4038C30A0F491E0980F90931E
:103E7000C4038093CB0390E0FC01EE0FFF1F8E0F75
:103E80009F1FFC01E056FC4F88EB9BE092838183EF
:103E900003C08FEF8093CB031092C6031092C5032B
:103EA0001092C8031092C7031092CA031092C9035C
:103EB00040E050E068E671E085EC93E00C94E103AB
:103EC000662777270C94641FA0E0B0E0EAE6FFE1E4
:103ED0000C944822EC016B016115710519F0FB018E
:103EE000918380837E01FFEFEF1AFF0A0881802F04
:103EF00090E00E94B220892B11F0E701F3CF0D3240
:103F000039F47E0182E0E80EF11C098111E008C05D
:103F10000B3229F47E0192E0E90EF11C098110E0D8
:103F2000E701219743E050E060E271E0CE010E949A
:103F3000BB20892BC1F4239645E050E06BE171E092
:103F4000CE010E94BB20892B09F42596C114D1040F
:103F500019F0F601D183C0831111F6C060E070E062
:103F600080E89FE7FAC043E050E068E171E0CE01ED
:103F70000E94BB20892B59F4C114D10409F4E9C073
:103F8000F2E0EF0EF11CF601F182E082E2C020E0E7
:103F900030E0A901C0E0D0E0F70180EDA82EA00E2E
:103FA00089E08A1530F1912F9260B92E812F8870A7
:103FB00012FF04C0811124C0219622C081112197D3
:103FC000A5E0B0E00E942F22DC01CB01880F991FF1
:103FD000AA1FBB1F9C01AD012A0D311D411D511DA2
:103FE000283989E93807480789E1580748F01660F9
:103FF00006C09EEFA9120AC013FD40C01860B12E82
:104000008FEFE81AF80A00811B2DC6CF802F8F7D15
:104010008534A1F580818D3211F4106106C08B3298
:1040200021F0319661E070E004C08181329662E057
:1040300070E080538A3018F0E61BF70B1FC060E079
:1040400070E060389CE079075CF4DB01AA0FBB1FCD
:10405000AA0FBB1F6A0F7B1F660F771F680F711DAA
:104060003196DF0111978C9180538A3050F314FF01
:1040700003C0719561957109C60FD71F11FF08C064
:10408000C114D10429F0CF010197F60191838083F7
:10409000CA01B9010E94D820212F2370233019F0C2
:1040A0004B015C0106C04B015C01B7FAB094B7F854
:1040B000B09420E030E0A901C501B4010E94D320F2
:1040C000882309F43EC0D7FF06C0D195C195D10918
:1040D00007E311E002C00FE411E06801F8E1CF1A34
:1040E000D10890E2E92EF12CCE15DF0574F0F8012D
:1040F0002591359145915491C501B4010E94392112
:104100004B015C01CE19DF09EFCF04501109F59482
:10411000E7940C151D0541F78A2D880F8B2D881FFC
:104120008F3F49F020E030E0A901C501B4010E94B1
:10413000D320811106C082E290E09093EF03809338
:10414000EE03C501B40109C060E070E080E89FEFB4
:1041500004C060E070E080EC9FE7CDB7DEB7ECE034
:104160000C94642291110C94A621803219F089508C
:104170008550C8F70895FB01DC014150504088F09C
:104180008D9181341CF08B350CF4805E6591613427
:104190001CF06B350CF4605E861B611171F3990B9A
:1041A0000895881BFCCF0E94152108F481E0089532
:1041B000E89409C097FB3EF49095809570956195C1
:1041C0007F4F8F4F9F4F9923A9F0F92F96E9BB2777
:1041D0009395F695879577956795B795F111F8CFF3
:1041E000FAF4BB0F11F460FF1BC06F5F7F4F8F4F5E
:1041F0009F4F16C0882311F096E911C0772321F054
:104200009EE8872F762F05C0662371F096E8862FEB
:1042100070E060E02AF09A95660F771F881FDAF742
:10422000880F9695879597F90895990F0008550F6F
:10423000AA0BE0E8FEEF16161706E807F907C0F02C
:1042400012161306E407F50798F0621B730B840B34
:10425000950B39F40A2661F0232B242B252B21F40E
:1042600008950A2609F4A140A6958FEF811D811DAE
:1042700008950E944C210C94C0210E94B22138F074
:104280000E94B92120F0952311F00C94A9210C94DF
:10429000AF2111240C94F4210E94D12170F3959F39
:1042A000C1F3950F50E0551F629FF001729FBB272D
:1042B000F00DB11D639FAA27F00DB11DAA1F649FC9
:1042C0006627B00DA11D661F829F2227B00DA11D7C
:1042D000621F739FB00DA11D621F839FA00D611D02
:1042E000221F749F3327A00D611D231F849F600D23
:1042F000211D822F762F6A2F11249F5750409AF04C
:10430000F1F088234AF0EE0FFF1FBB1F661F771FD7
:10431000881F91505040A9F79E3F510580F00C94A2
:10432000A9210C94F4215F3FE4F3983ED4F38695E1
:1043300077956795B795F795E7959F5FC1F7FE2B42
:10434000880F911D9695879597F908959927882745
:10435000089597F99F6780E870E060E008959FEF07
:1043600080EC089500240A9416161706180609060C
:10437000089500240A9412161306140605060895DB
:10438000092E0394000C11F4882352F0BB0F40F463
:10439000BF2B11F460FF04C06F5F7F4F8F4F9F4FA3
:1043A000089557FD9058440F551F59F05F3F71F025
:1043B0004795880F97FB991F61F09F3F79F087958C
:1043C0000895121613061406551FF2CF4695F1DF15
:1043D00008C0161617061806991FF1CF86957105A5
:1043E000610508940895E894BB2766277727CB01D9
:1043F00097F90895F999FECF92BD81BDF89A992752
:1044000080B50895262FF999FECF1FBA92BD81BDC0
:1044100020BD0FB6F894FA9AF99A0FBE0196089546
:10442000052E97FB1EF400940E94272257FD07D00B
:104430000E94792207FC03D04EF40C942722509559
:104440004095309521953F4F4F4F5F4F0895909580
:104450008095709561957F4F8F4F9F4F08950E9473
:104460009B22A59F900DB49F900DA49F800D911D40
:1044700011240895B7FF0C942F220E942F22821B33
:10448000930B08952F923F924F925F926F927F927B
:104490008F929F92AF92BF92CF92DF92EF92FF9254
:1044A0000F931F93CF93DF93CDB7DEB7CA1BDB0B00
:1044B0000FB6F894DEBF0FBECDBF09942A883988A5
:1044C00048885F846E847D848C849B84AA84B984AC
:1044D000C884DF80EE80FD800C811B81AA81B981B8
:1044E000CE0FD11D0FB6F894DEBF0FBECDBFED01CC
:1044F0000895A1E21A2EAA1BBB1BFD010DC0AA1F25
:10450000BB1FEE1FFF1FA217B307E407F50720F03C
:10451000A21BB30BE40BF50B661F771F881F991FB7
:104520001A9469F760957095809590959B01AC0100
:10453000BD01CF010895A29FB001B39FC001A39F09
:10454000700D811D1124911DB29F700D811D1124CC
:10455000911D08955058BB27AA270E94C2220C948F
:10456000C0210E94B22138F00E94B92120F039F414
:104570009F3F19F426F40C94AF210EF4E095E7FB6D
:104580000C94A921E92F0E94D12158F3BA17620790
:1045900073078407950720F079F4A6F50C94F321AE
:1045A0000EF4E0950B2EBA2FA02D0B01B90190014E
:1045B0000C01CA01A0011124FF27591B99F0593F92
:1045C00050F4503E68F11A16F040A22F232F342FDA
:1045D0004427585FF3CF469537952795A795F04028
:1045E0005395C9F77EF41F16BA0B620B730B840B3D
:1045F000BAF09150A1F0FF0FBB1F661F771F881FF5
:10460000C2F70EC0BA0F621F731F841F48F487954C
:1046100077956795B795F7959E3F08F0B0CF93953E
:10462000880F08F09927EE0F9795879508959F9327
:104630009F77EEE389379E0728F4ECEDF0E00E94C7
:1046400021240CC00E94DA239058A2EA2AED3FE010
:1046500049EC5FE30E94C2220E94C0210F9007FC38
:10466000905808950E9446230C94C0210E94B921BD
:1046700058F00E94B22140F029F45F3F29F00C94D9
:10468000A92151110C94F4210C94AF210E94D12145
:1046900068F39923B1F3552391F3951B550BBB2771
:1046A000AA2762177307840738F09F5F5F4F220FB6
:1046B000331F441FAA1FA9F335D00E2E3AF0E0E8AD
:1046C00032D091505040E695001CCAF72BD0FE2FF7
:1046D00029D0660F771F881FBB1F2617370748078B
:1046E000AB07B0E809F0BB0B802DBF01FF27935843
:1046F0005F4F3AF09E3F510578F00C94A9210C943D
:10470000F4215F3FE4F3983ED4F38695779567955F
:10471000B795F7959F5FC9F7880F911D9695879577
:1047200097F90895E1E0660F771F881FBB1F621796
:1047300073078407BA0720F0621B730B840BBA0B54
:10474000EE1F88F7E09508950E94AB236894B1119D
:104750000C94F42108950E94D92188F09F5798F075
:10476000B92F9927B751B0F0E1F0660F771F881F76
:10477000991F1AF0BA95C9F714C0B13091F00E9490
:10478000F321B1E008950C94F321672F782F882747
:10479000B85F39F0B93FCCF3869577956795B395B7
:1047A000D9F73EF490958095709561957F4F8F4F26
:1047B0009F4F0895DF93CF931F930F938B01EC01CD
:1047C000E0EFF0E00E94FA230E94C0219801AE01C0
:1047D0008B01EC0160E070E080E89FE30E94AA2278
:1047E0000E9440249801AE010F911F91CF91DF915B
:1047F0000C944C21DF93CF931F930F93FF92EF9272
:10480000DF927B018C01689406C0DA2EEF010E94D2
:104810004C21FE01E894A591259135914591559142
:10482000A6F3EF010E94C222FE019701A801DA94CB
:1048300069F7DF90EF90FF900F911F91CF91DF917B
:1048400008959F938F937F936F93FF93EF939B01B3
:10485000AC010E943921EF91FF910E94FA232F9120
:104860003F914F915F910C9439210E94152108F4DA
:104870008FEF089519F416F40C94AF210C9485244D
:104880000E94D921B8F39923C9F3B6F39F57550B6A
:1048900087FF0E9493240024A0E640EA90018058FC
:1048A0005695979528F4805C660F771F881F20F037
:1048B00026173707480730F4621B730B840B202937
:1048C00031294A2BA69517940794202531254A278C
:1048D00058F7660F771F881F20F0261737074807FD
:1048E00030F4620B730B840B200D311D411DA0951C
:1048F00081F7B901842F9158880F9695879508956F
:104900000E941521880B990B08959F3F31F091501B
:1049100020F4879577956795B795880F911D9695A3
:10492000879597F9089591505040660F771F881F1B
:10493000D2F70895991B79E004C0991F961708F0E3
:10494000961B881F7A95C9F78095089597FB072EC7
:1049500016F4009407D077FD09D00E94C02407FC0C
:1049600005D03EF4909581959F4F0895709561957F
:104970007F4F0895EE0FFF1F0590F491E02D0994ED
:10498000AA1BBB1B51E107C0AA1FBB1FA617B70775
:1049900010F0A61BB70B881F991F5A95A9F7809591
:1049A0009095BC01CD0108950F931F93CF93DF9392
:1049B0008230910510F482E090E0E091F203F091F2
:1049C000F30320E030E0A0E0B0E0309719F140813F
:1049D00051810281138148175907C8F08417950740
:1049E00069F4109731F012960C93129713961C935A
:1049F00027C00093F2031093F30322C02115310561
:104A000019F04217530718F49A01BD01EF01DF01B5
:104A1000F801DBCF21153105F9F0281B390B2430C3
:104A2000310580F48A819B816115710521F0FB01BC
:104A30009383828304C09093F3038093F203FE0177
:104A4000329644C0FE01E20FF31F819391932250EE
:104A50003109398328833AC02091F0033091F10362
:104A6000232B41F420911A0130911B013093F10363
:104A70002093F0032091180130911901211531057F
:104A800041F42DB73EB740911C0150911D01241BEC
:104A9000350BE091F003F091F103E217F307A0F476
:104AA0002E1B3F0B2817390778F0AC014E5F5F4F84
:104AB0002417350748F04E0F5F1F5093F1034093C2
:104AC000F0038193919302C0E0E0F0E0CF01DF9129
:104AD000CF911F910F910895CF93DF93009709F421
:104AE00081C0FC01329713821282A091F203B0912F
:104AF000F303109781F420813181820F931F20915D
:104B0000F0033091F1032817390751F5F093F103C1
:104B1000E093F00367C0ED0120E030E0CE17DF073F
:104B200040F44A815B819E0141155105F1F0EA0193
:104B3000F5CFD383C28340815181840F951FC8175D
:104B4000D90759F488819981840F951F0296918322
:104B500080838A819B81938382832115310529F487
:104B6000F093F303E093F2033DC0E901FB83EA8392
:104B700049915991C40FD51FEC17FD0761F480814D
:104B80009181840F951F0296E90199838883828120
:104B900093819B838A83E0E0F0E012968D919C9153
:104BA0001397009719F0FD01DC01F7CF8D919C91CF
:104BB00011979D012E5F3F4F820F931F2091F003AD
:104BC0003091F1032817390769F4309729F41092CE
:104BD000F3031092F20302C013821282B093F10326
:104BE000A093F003DF91CF910895A0E0B0E0EBEF48
:104BF000F5E20C944622EC01009721F4CB010E94CF
:104C0000D424B4C0FC01E60FF71F9C0122503109E7
:104C1000E217F30708F4A8C0D9010D911C91119770
:104C200006171707B0F00530110508F49BC0C8013E
:104C300004978617970708F495C002501109061BC0
:104C4000170B019311936D937C93CF010E946C25F8
:104C500089C05B01A01AB10A4C01800E911EA0917F
:104C6000F203B091F303612C712CE12CF12C10971D
:104C700009F446C08D919C911197A815B905B1F51D
:104C80006C0142E0C40ED11CCA14DB0478F14C0163
:104C90008A189B08640142E0C40ED11C1296BC9095
:104CA00012971396AC91B5E0CB16D10440F0B282C6
:104CB000A38391828082D9016D937C9309C00E5F9A
:104CC0001F4F800F911FF90191838083EB2DFA2FE5
:104CD000E114F10431F0D7011396FC93EE9312978F
:104CE00041C0F093F303E093F2033CC068167906E9
:104CF00008F43C017D0112960D90BC91A02DB7CF18
:104D00008091F0039091F10388169906E1F46616FC
:104D10007706C8F48091180190911901009741F429
:104D20008DB79EB740911C0150911D01841B950BBE
:104D3000E817F907C8F4F093F103E093F003F901E1
:104D4000718360830FC0CB010E94D4247C01009743
:104D500059F0A801BE010E94C026CE010E946C2518
:104D6000C70104C0CE0102C080E090E0CDB7DEB73D
:104D7000EEE00C94622281E090E0F8940C94DB2643
:104D8000FB01DC0102C001900D9241505040D8F768
:104D90000895FC018191861721F08823D9F799277E
:104DA00008953197CF010895FB01DC0101900D9228
:104DB0000020E1F7089511E0C9E2D1E004C0FE014E
:104DC0000E94BA242196CA32D107C9F7F894FFCFBE
:104DD0005A000F000000B0400000B040FFFFFFFF8E
:104DE00000E10000000000000000F403800000006B
:104DF000B04000C18081000000E803000000007D99
:104E000002EB011502C9024602240238020000002A
:104E1000005F0829035A097508800882095E0900A5
:104E20000000002709FA085709CE08F208DE08CF6B
:104E3000082000203B000D0A006E616E00696E665E
:064E4000006F7666000021
:00000001FF
