:100000000C942A010C9452010C9452010C9452014C
:100010000C9452010C9452010C9452010C94520114
:100020000C9452010C9452010C9427040C949904E2
:100030000C9452010C9452010C9452010C945201F4
:100040000C9452010C949E090C9452010C94520190
:100050000C9452010C9452010C9452010C94BA105D
:100060000C9452010C9441080C941B080C945201FE
:100070000C9452010C9452010C9452010C945201B4
:100080000C94510D0C9452010C9452010C94520199
:100090000C945F0A0C9452010C9452010C9452017E
:1000A0000C9452010C9452010C9452010D1BF61A3F
:1000B000E91AE41A551B971A861A771A6A1ACB0F8F
:1000C000CE0FBD0FC10FC70FEF0FEF0FEF0FD20F06
:1000D000D60FDA0FE00FE40FEF0FEA0F036EDB36F7
:1000E0003D9A9999993DABAAAA2A3E000000803F0B
:1000F000072C7AA5BA6CC590DA3B9365FC8BBC5390
:10010000F810FD3C5692834DBD879D3AB63DCBC954
:10011000BF5BBE73DA0FC93F4E414E494E49545939
:10012000494E46CDCCCC3D0AD7233C17B7D13877C2
:10013000CC2B329595E6241FB14F0A0000204100D8
:1001400000C84200401C4620BCBE4CCA1B0E5AAE22
:10015000C59D74000000002300260029002C002FFC
:1001600000080B0002020201000904000001020263
:1001700000000524001001052401010104240206E9
:100180000524060001070581031000400904010051
:10019000020A000000070502024000000705830272
:1001A0004000000403090412010002EF0201404173
:1001B00023368000010102030141726475696E6F8C
:1001C000204C4C430041726475696E6F204C656F22
:1001D0006E6172646F0000000000240027002A0096
:1001E0002D00300000000000250028002B002E000C
:1001F000310004040404040304050202020204039F
:1002000002020202060606060606040402020204B0
:100210000404080201104080401020408040800803
:100220000204018040201002011080102040402074
:100230000000000200090F0000030401000C000090
:1002400000000000000000000000000000000000AE
:10025000811F7D1F11241FBECFEFDAE0DEBFCDBFAF
:1002600011E0A0E0B1E0EEE4FFE402C005900D92E1
:10027000A637B107D9F723E0A6E7B1E001C01D9288
:10028000AC3FB207E1F711E0C9E2D1E004C0219729
:10029000FE010E947925C832D107C9F70E94491191
:1002A0000C949A270C9400004091EE015091EF01BC
:1002B0002091EC013091ED0142175307B4F4909175
:1002C000E8009570E1F39091E80092FD19C08093E9
:1002D000F1008091EE019091EF0101968F739927C3
:1002E000892B19F48EEF8093E8008091EE019091B4
:1002F000EF0101969093EF018093EE0181E0089564
:1003000080E00895DF92EF92FF920F931F93CF93B7
:10031000DF93D82EF92EE42E062F10E0C8010196A7
:10032000880F0E94540183E00E945401CD2DDF2DDF
:100330000C0F1D1FC017D10789F0E7FE03C0FE0197
:10034000849101C088810E945401F82E80E00E94AF
:1003500054018F2121968111EDCF01C081E0DF9101
:10036000CF911F910F91FF90EF90DF900895DF9252
:10037000EF92FF920F931F93CF93DF93D82E8A01B2
:100380007B01E40EF51EEB01CE15DF0571F0D7FE03
:1003900003C0FE01849101C088810E94540121960E
:1003A0008111F2CF8FEF9FEF01C0C801DF91CF9194
:1003B0001F910F91FF90EF90DF900895615030F002
:1003C0002091F100FC0120830196F8CF289884E663
:1003D000809362020895CF92DF92EF92FF920F9383
:1003E0001F93CF93DF936C017A018B01C0E0D0E0C3
:1003F000CE15DF0581F0D8016D918D01D601ED910B
:10040000FC910190F081E02DC6010995892B11F036
:100410002196EECF7E01C701DF91CF911F910F9101
:10042000FF90EF90DF90CF900895FC01538D448DA5
:10043000252F30E0842F90E0821B930B541710F08F
:10044000CF96089501970895FC01918D828D98179C
:1004500061F0828DDF01A80FB11D5D968C91928DA8
:100460009F5F9F73928F90E008958FEF9FEF0895A5
:10047000FC01918D828D981731F0828DE80FF11D6E
:10048000858D90E008958FEF9FEF0895FC01918D89
:10049000228D892F90E0805C9F4F821B91098F7382
:1004A000992708958FEA92E00E94460221E0892B65
:1004B00009F420E0822F0895FC01848DDF01A80F4C
:1004C000B11DA35ABF4F2C91848D90E001968F737C
:1004D0009927848FA689B7892C93A089B1898C919B
:1004E00082748C93938D848D981306C00288F3894F
:1004F000E02D80818F7D80830895EF92FF920F938E
:100500001F93CF93DF93EC0181E0888F9B8D8C8DBF
:10051000981305C0E889F989808185FD26C0F62EEB
:100520000B8D10E00F5F1F4F0F731127E02E8C8D86
:10053000E8120CC00FB607FCFACFE889F989808170
:1005400085FFF5CFCE010E945C02F1CF8B8DFE01BD
:10055000E80FF11DE35AFF4FF0829FB7F8940B8F1D
:10056000EA89FB898081806209C09FB7F894EE898F
:10057000FF896083E889F9898081827480839FBFC5
:1005800081E090E0DF91CF911F910F91FF90EF906C
:100590000895CF93DF93EC01888D8823C9F0EA8911
:1005A000FB89808185FD05C0A889B9898C9186FD6C
:1005B0000FC00FB607FCF5CF808185FFF2CFA88969
:1005C000B9898C9185FFEDCFCE010E945C02E7CF07
:1005D000DF91CF91089580E090E0892B29F00E946F
:1005E000520281110C9400000895CF93DF931F9263
:1005F000CDB7DEB76983DC01ED91FC910280F38118
:10060000E02D41E050E0BE016F5F7F4F09950F90F4
:10061000DF91CF9108950E947A270F931F93CF9374
:10062000DF931F92CDB7DEB782E0898342E450E0CA
:1006300061E671E080E80E94B7010E949F0FDC0133
:1006400012960D911C9113970115110589F0D8018F
:10065000ED91FC910280F381E02DBE016F5F7F4F31
:10066000C801099597FD04C0F80100851185ECCFFC
:1006700089810F90DF91CF911F910F9108958F92F3
:100680009F92AF92BF92CF92DF92EF92FF920F9321
:100690001F93CF93DF936C017B018A018091170137
:1006A000882309F45CC080916302882309F457C051
:1006B0008091760180FF05C08091E0008260809388
:1006C000E000E801B12C8AEFA82E93E0892E2AE3FE
:1006D000922E209711F4BB20D9F10E948E0F811128
:1006E0000AC0AA94AA20D9F161E070E080E090E00D
:1006F0000E948010EECF282F30E0C217D3070CF4F1
:100700008C2F9FB7F8948092E9002091E80025FF94
:100710001DC0282F30E0C21BD30BF701815020F001
:1007200041914093F100FACFE20EF31EBB2019F085
:100730009092E8000AC08091E80085FD07C0909281
:10074000E800BB24B394209709F0B12C9FBFC1CF20
:100750005D9884E68093F1011016110644F081E063
:1007600090E0F6019383828380E090E001C0C801AD
:10077000DF91CF911F910F91FF90EF90DF90CF907D
:10078000BF90AF909F908F900895FC0180819181E0
:10079000009711F00C941F2060E070E0CB010895E9
:1007A0000F931F93CF93DF93EC018881998100977A
:1007B00029F02A813B812617370788F48B016F5F68
:1007C0007F4F0E94B426009761F0998388831B8332
:1007D0000A832C813D81232B11F4FC01108281E0DE
:1007E00001C080E0DF91CF911F910F910895EF92AA
:1007F000FF920F931F93CF93DF93EC017B018A014C
:10080000BA010E94D0032881398181110DC02115C0
:10081000310519F0C9010E942B26198218821D8208
:100820001C821B821A8206C01D830C83B701C9017A
:100830000E949327CE01DF91CF911F910F91FF90DE
:10084000EF900895FC01808191810C942B261F92DA
:100850000F920FB60F9211248F939F938091E10016
:100860009091E100937F9093E10083FF0FC010927D
:10087000E90091E09093EB001092EC0092E39093EA
:10088000ED001092630298E09093F00082FF20C088
:1008900093E09093E9009091F200992319F09AE384
:1008A0009093E8009091F101992339F09091F10132
:1008B00091509093F101992389F1909162029923CB
:1008C00039F090916202915090936202992341F124
:1008D00084FF10C08091E2008E7E81608093E200F0
:1008E0008091E1008F7E8093E100809176018E7E81
:1008F000806111C080FF16C08091E2008E7E806111
:100900008093E2008091E1008E7E8093E1008091EF
:1009100076018E7E81608093760104C05D9ACDCF92
:10092000289AD6CF9F918F910F900FBE0F901F9056
:1009300018951F920F920FB60F921124CF92DF924B
:10094000EF92FF920F931F932F933F934F935F93D9
:100950006F937F938F939F93AF93BF93EF93FF9387
:10096000CF93DF93CDB7DEB76C97DEBFCDBF1092CC
:10097000E9008091E80083FFFBC168E0CE01459665
:100980000E94DE0182EF8093E8008D8987FF05C019
:100990009091E80090FFFCCF03C09EEF9093E80099
:1009A000982F907609F0C6C09E894F89588D2F895F
:1009B000F88C91110CC0803829F4809177018093D4
:1009C000F10002C01092F1001092F10045C1913087
:1009D00051F4811141C14130510509F03DC180916F
:1009E00077018D7F0BC0933061F4811135C14130A7
:1009F000510509F031C180917701826080937701C0
:100A00002BC1953049F48091E80080FFFCCF822F04
:100A100080688093E30020C1963009F05EC00B8DA2
:100A20001C8D22E01092E9001092EF011092EE016D
:100A3000F21232C01092ED011092EC010E940D03EF
:100A400099E0BE016F5F7F4FDB01E92F1D92EA95B0
:100A5000E9F79983FA8291E09E8390EA98879AEF6A
:100A600099872091EE013091EF01275F3F4F3C8342
:100A70002B838D831092E9001092EF011092EE010A
:100A80001093ED010093EC0149E050E080E00E94FA
:100A9000B7010E940D03E0C01093ED010093EC013B
:100AA0000E949F0FDC0112960D911C911397011566
:100AB000110509F4BBC0D801ED91FC910480F581CA
:100AC000E02DBE016B5E7F4FC8010995009709F0CC
:100AD000C7C0F80100851185EACF973009F445C1F8
:100AE000983021F481E08093F100B6C0993009F08C
:100AF000B3C0837009F039C1E3E2F1E081E031E095
:100B000096E32081211109C08EE78093EA001092BC
:100B1000EA008F89809363029FC08093E90030933D
:100B2000EB0021912093EC009093ED008F5F8730D4
:100B300041F7EACF8B8D9C8D1092E9001092EF0166
:100B40001092EE019093ED018093EC01898D81115B
:100B500053C08E899D89913A49F4813209F005C1CB
:100B600047E050E060E171E080E0BBC0913209F005
:100B7000FCC0833269F48F89988DA0E0B0E0809347
:100B80000C0190930D01A0930E01B0930F0164C06E
:100B9000803269F48091E80082FFFCCF67E080E159
:100BA00091E00E94DE018BEF8093E80055C0823215
:100BB00009F052C08F8980931701EEEFFFE785910E
:100BC00094918B3F9C4D19F0E0E0F8E002C0EEEF0D
:100BD000FAE08091100190911101A0911201B09161
:100BE0001301803B9440A105B10509F09EC080919E
:100BF000170180FF79C099C00E949F0FFC010281FC
:100C000013810115110509F4B0C0D801ED91FC91D3
:100C10000190F081E02DBE016B5E7F4FC801099508
:100C200081111AC0F80100851185EBCFF1E0FF16A4
:100C300009F44EC0F3E0FF1298C08F89882309F4AD
:100C40004AC0823089F440E860E185EC91E00E947E
:100C50008201882309F489C08EEF8093E80088C060
:100C600018161906CCF381C0813029F440E86BE0F6
:100C700089EB91E0ECCF833009F077C00E949F0FA1
:100C8000DC011296ED90FC9013978E010F5F1F4FC1
:100C90006801E114F10479F0D701ED91FC9106802F
:100CA000F781E02DB801C7010995080F111DF70163
:100CB000E084F184EECFD8011C92F601019000206F
:100CC000E9F73197BF016C197D0940E0C601BFCF3C
:100CD00067EA71E002C063EA71E0FB01449150E011
:100CE00080E80E94B701B8CFEE3F2AE0F20751F04A
:100CF000808191818737A7E79A0721F09093FF0AB7
:100D00008093FE0A87E797E7918380838091600054
:100D10008093F0019BE088E10FB6F894A89580934A
:100D200060000FBE9093600097CF808191818737DC
:100D3000974709F091CFA8958091600088618093D2
:100D400060008091F00180936000EE3FBAE0FB0705
:100D500039F08091FE0A9091FF0A918380837CCFC5
:100D60001092FF0A1092FE0A77CF81E28093EB0087
:100D70006C960FB6F894DEBF0FBECDBFDF91CF915A
:100D8000FF91EF91BF91AF919F918F917F916F9163
:100D90005F914F913F912F911F910F91FF90EF9095
:100DA000DF90CF900F900FBE0F901F901895611598
:100DB000710579F0FB0101900020E9F73197AF014F
:100DC000461B570BDC01ED91FC910280F381E02D75
:100DD000099480E090E008958F929F92AF92BF9225
:100DE000EF92FF920F931F93CF93DF93CDB7DEB7B0
:100DF000A1970FB6F894DEBF0FBECDBF7C01FA01FC
:100E0000CB0119A2223008F42AE08E010F5D1F4F9A
:100E1000822E912CA12CB12CBF01A50194010E941E
:100E20003823F901CA01015011096A3014F4605DD8
:100E300001C0695CD8016C93232B242B252B61F70F
:100E4000B801C7010E94D706A1960FB6F894DEBF7D
:100E50000FBECDBFDF91CF911F910F91FF90EF900B
:100E6000BF90AF909F908F9008957F928F929F92A6
:100E7000AF92BF92CF92DF92EF92FF920F931F93A8
:100E8000CF93DF938C016A017B01722E9A01AB0133
:100E9000C701B6010E943F25882319F069E671E079
:100EA00027C046015701E894B7F82FEF3FEF4FE70F
:100EB0005FE7C501B4010E943F2581110DC02FEFEE
:100EC0003FEF4FE75FE7C501B4010E94922118167A
:100ED0001CF46DE671E00CC02FEF3FEF4FE75FE4CD
:100EE000C701B6010E94F424181694F461E771E07A
:100EF000C801DF91CF911F910F91FF90EF90DF908C
:100F0000CF90BF90AF909F908F907F900C94D7061A
:100F10002FEF3FEF4FE75FECC701B6010E94922130
:100F200087FDE4CF20E030E0A901C701B6010E94AF
:100F3000922187FF0FC0D801ED91FC910190F081C3
:100F4000E02D6DE2C8010995EC01F7FAF094F7F88D
:100F5000F09402C0C0E0D0E0B12C60E070E080E02E
:100F60009FE37B1441F020E030E040E251E40E9436
:100F7000F123B394F6CFA70196010E946A236B0177
:100F80007C010E946A244B015C012AE0AB01BC0198
:100F9000C8010E94EC06C80FD91F7720E9F1C501EE
:100FA000B4010E9497219B01AC01C701B6010E94C8
:100FB00069236B017C01D801ED91FC910190F081D6
:100FC000E02D6EE2C8010995C80FD91F20E030E07E
:100FD00040E251E4C701B6010E94F8214B015C01D7
:100FE0000E946A246B01E12CF12C2AE0B701A601D2
:100FF000C8010E94EC06C80FD91FC701B6010E94A4
:1010000097219B01AC01C501B4010E9469236B01CA
:101010007C017A947110DACFCE01DF91CF911F91CC
:101020000F91FF90EF90DF90CF90BF90AF909F9087
:101030008F907F9008951F920F920FB60F921124F8
:101040002F933F934F935F936F937F938F939F93D0
:10105000AF93BF93EF93FF938FEA92E00E945C02FD
:10106000FF91EF91BF91AF919F918F917F916F9180
:101070005F914F913F912F910F900FBE0F901F9056
:1010800018951F920F920FB60F9211242F938F93E2
:101090009F93EF93FF93E091BF02F091C002808194
:1010A000E091C502F091C60282FD12C0908180914C
:1010B000C8028F5F8F732091C902821751F0E091AF
:1010C000C802F0E0E155FD4F958F8093C80201C042
:1010D0008081FF91EF919F918F912F910F900FBE83
:1010E0000F901F90189583E08093E9008091F200A3
:1010F000882319F08AE38093E8000895FC01848531
:10110000958597FD0BC09FB7F89482E08093E90026
:101110008091F2009FBF90E0019608959FB7F894E8
:1011200082E08093E9008091F2009FBF90E00895F3
:1011300085ED8093BC008091BC0084FDFCCF1092B3
:101140008A02089540913A02262F30E0240F311D83
:1011500021323105DCF420918A022430C9F4FC01EB
:1011600080E090E0861758F430913A022191DC013A
:10117000A65EBD4FA30FB11D2C930196F3CF8091B6
:101180003A02680F60933A0280E0089581E0089582
:1011900082E00895089508950895E0917D01809179
:1011A0007C01E81730F4F0E0E650FE4F808190E0DB
:1011B00008958FEF9FEF089590917D0180917C01BC
:1011C000981750F4E92FF0E0E650FE4F208130E010
:1011D0009F5F90937D0102C02FEF3FEFC9010895FB
:1011E00080917C0190E020917D01821B91090895FE
:1011F000CF92DF92EF92FF920F931F93CF93DF93E3
:101200007C01CB018A0120918B02222389F0EB0122
:101210006B01C40ED51ECC15DD0569F06991D701AF
:10122000ED91FC910190F081E02DC7010995F3CF7C
:10123000642F0E94A208C801DF91CF911F910F91E6
:10124000FF90EF90DF90CF900895CF93DF931F92A0
:10125000CDB7DEB7698320918B022223D1F0209194
:10126000AE02203240F021E030E0FC0133832283E3
:1012700080E090E015C080918C02E82FF0E0E35709
:10128000FD4F998190838F5F80938C028093AE0293
:1012900005C061E0CE0101960E94A20881E090E0C5
:1012A0000F90DF91CF910895089580E090E0089528
:1012B0000E948E0F90E008950F931F93CF93DF93BA
:1012C0001F92CDB7DEB78C01FC018485958597FF11
:1012D0000EC0CE0101960E94600F019719F489811A
:1012E00090E002C08FEF9FEFF80195878487F801A7
:1012F000848595850F90DF91CF911F910F9108956F
:10130000CF93DF931F92CDB7DEB7FC01848595851F
:1013100097FD05C02FEF3FEF358724870BC0CE0127
:1013200001960E94600F019719F4898190E002C034
:101330008FEF9FEF0F90DF91CF9108951F920F9243
:101340000FB60F9211242F933F934F935F936F9398
:101350007F938F939F93AF93BF93EF93FF9380916E
:101360005D0287FF05C010928500109284001BC0AB
:1013700020915D02022E000C330B8091CC0390E093
:101380002817390784F480915D02082E000C990B10
:10139000FC01EE0FFF1F8E0F9F1FFC01E855FC4F55
:1013A000808186FD15C080915D028F5F80935D0214
:1013B00020915D02022E000C330B8091CC0390E053
:1013C00028173907C4F480915D028C3064F113C092
:1013D00080915D02082E000C990BFC01EE0FFF1F9F
:1013E0008E0F9F1FFC01E855FC4F808160E08F73DA
:1013F0000E94F00FD8CF80918400909185000496D0
:1014000080349C4918F480E49CE905C080918400F4
:1014100090918500049690938900809388008FEFC7
:1014200080935D023BC020918400309185008091C3
:101430005D02082E000C990BFC01EE0FFF1F8E0FB2
:101440009F1FFC01E855FC4F81819281820F931F01
:10145000909389008093880080915D02082E000C93
:10146000990BFC01EE0FFF1F8E0F9F1FFC01E8552B
:10147000FC4F808186FF12C080915D02082E000C17
:10148000990BFC01EE0FFF1F8E0F9F1FFC01E8550B
:10149000FC4F808161E08F730E94F00FFF91EF910C
:1014A000BF91AF919F918F917F916F915F914F917C
:1014B0003F912F910F900FBE0F901F9018951F9284
:1014C0000F920FB60F9211242F933F934F935F9378
:1014D0006F937F938F939F93AF93BF93EF93FF93FC
:1014E0008091B900887F803609F49CC068F5883205
:1014F00009F45BC090F4803109F454C038F48823B7
:1015000009F4F6C0883009F44DC0F6C0883109F4FA
:101510004CC0803209F45DC0EFC0803409F468C06B
:1015200048F4803309F455C0883309F0E5C080934E
:101530008802D8C0803509F44FC0883509F45DC0F1
:10154000883409F0D9C0D6C0883909F4C7C0A8F4D6
:10155000883709F467C038F4883609F463C08037E7
:1015600009F460C0C9C0883809F4B8C0803909F4EA
:101570005FC0803809F0C0C05BC0803B09F486C002
:1015800038F4803A09F466C0883A09F47FC0B4C0E0
:10159000803C09F4A7C0883C09F4A4C0883B09F446
:1015A0008AC0AAC08091650210C090918702809184
:1015B0008602981770F5E091870281E08E0F809384
:1015C0008702F0E0EA59FD4F80818093BB0085ECF3
:1015D00086C0809388028EC0E091870281E08E0FE2
:1015E000809387028091BB00F0E0EA59FD4F808331
:1015F00090918702809186026EC0E091870281E01F
:101600008E0F809387028091BB00F0E0EA59FD4F76
:1016100080838091890281116DC081E08093640292
:1016200084EA61C083E080938A0210925C02CFCF8B
:1016300080915C02803208F051C0E0915C0281E050
:101640008E0F80935C028091BB00F0E0E45CFD4F64
:101650008083BDCF85EC8093BC0010928A0280917C
:101660005C02803230F4E0915C02F0E0E45CFD4F1B
:10167000108260915C0270E0E0917801F091790154
:101680008CE392E0099510925C0236C084E080936E
:101690008A0210923B0210923A02E0917A01F09194
:1016A0007B01099580913A02811105C081E0809308
:1016B0003A0210921A02E0913B0281E08E0F809371
:1016C0003B02F0E0E65EFD4F80818093BB0090918D
:1016D0003B0280913A02981708F479CF85E880930D
:1016E000BC000AC085EC8093BC0010928A0204C042
:1016F000109288020E949808FF91EF91BF91AF91DC
:101700009F918F917F916F915F914F913F912F9119
:101710000F900FBE0F901F9018952F923F924F92EF
:101720005F926F927F928F929F92AF92BF92CF9271
:10173000DF92EF92FF920F931F93CF93DF93CDB77A
:10174000DEB728970FB6F894DEBF0FBECDBFD82EF8
:10175000C62E4F8349018FB7F89440905E02509097
:101760005F0260906002709061028FBF2D2C220C8E
:10177000E12C1886FF24F394A42EB12C33243A9440
:10178000980140E050E02B833C834D835E833F8192
:10179000E31608F08CC0F0928B02D092AD0210924A
:1017A0008C021092AE026C2D8CE993E00E94250908
:1017B00081E00E943B0EF0928B02D092AD0210921B
:1017C0008C021092AE0280918A028111FCCFC50179
:1017D0008E1991098132910514F080E290E08132F6
:1017E00008F080E2F0928A02F09289023092880238
:1017F000109287029FEF980F90938602F0926502F5
:1018000090916502922990936502909164029130C3
:1018100071F410926402909165029093BB009091D4
:10182000BC0093FDF8CF45EC4093BC0003C055EEDF
:101830005093BC0090918A029130E1F3909187021D
:10184000981710F480918702E6E6F2E0AAEFB1E083
:1018500090E0981721F021912D939F5FFACF10927D
:101860007D0190937C0190917C0180917D0198177E
:1018700009F456C00115110509F43FC02FB7F894BB
:1018800080915E0290915F02A0916002B09161022E
:101890002FBF84199509A609B7092B813C814D8179
:1018A0005E8182179307A407B50738F139C0011587
:1018B0001105E1F12FB7F89480915E0290915F02DB
:1018C000A0916002B09161022FBF84199509A60909
:1018D000B70920E030E080179107A207B30730F185
:1018E0004F81242F30E05885852F550F990B821793
:1018F0009307E4F48FEF888719C0D401E885AE0F11
:10190000B11DE7FDBA95BA83A9838CE993E00E94E3
:10191000DC08A981BA818C93B885BF5FB887A3CF53
:101920008F81813208F080E2E80E31CF88852896D9
:101930000FB6F894DEBF0FBECDBFDF91CF911F91E0
:101940000F91FF90EF90DF90CF90BF90AF909F905E
:101950008F907F906F905F904F903F902F90089561
:10196000BF92CF92DF92EF92FF920F931F93CF938C
:10197000DF9300D0CDB7DEB7F82EE62EC42EB22E00
:10198000D02E08EE13E09E012E5F3F4F41E00E94F3
:101990008D0B882341F14C2D50E04B1951094F5FBD
:1019A0005F4F81E090E002C0880F991FBA94E2F780
:1019B0000197042E01C0880F0A94EAF72D2D01C06B
:1019C000220F4A95EAF7382F30959A819323822384
:1019D000892B8A838983AE014F5F5F4F6E2D8F2DD8
:1019E0000E94DE0E01C080E00F900F90DF91CF913A
:1019F0001F910F91FF90EF90DF90CF90BF900895CF
:101A0000AF92BF92DF92EF92FF920F931F93CF930B
:101A1000DF93EC017B018B015C0184E0A80EB11C1B
:101A2000F801D1908F01CE010E94B922D81621F081
:101A30006D2DCE010E94C1222196CA15DB0581F7CA
:101A4000C701DF91CF911F910F91FF90EF90DF9031
:101A5000BF90AF900895CF92DF92EF92FF920F93D5
:101A60001F93CF93DF93EB017B0124E0E20EF11C87
:101A70008B016C01C61AD70AC601800F911F0E9404
:101A8000B922F80181938F01EE15FF05A9F7CE0168
:101A9000DF91CF911F910F91FF90EF90DF90CF904A
:101AA00008951F920F920FB60F9211242F933F9318
:101AB0008F939F938091F8019091F90101969093F3
:101AC000F9018093F8012091F6013091F701281770
:101AD0003907ECF41092F9011092F801809180011D
:101AE000909181019093F7018093F60197FF0DC0CB
:101AF0002B988091F6019091F7019195819591092C
:101B00009093F7018093F6010DC02B9A0BC08130A2
:101B1000910511F4299A06C08230910511F0892BA4
:101B200009F429988091F4019091F5010196909320
:101B3000F5018093F4012091F2013091F30128170F
:101B40003907ECF41092F5011092F40180917E01B6
:101B500090917F019093F3018093F20197FF0DC064
:101B60002E988091F2019091F301919581959109C0
:101B70009093F3018093F2010DC02E9A0BC0813037
:101B8000910511F42A9A06C08230910511F0892B33
:101B900009F42A989F918F913F912F910F900FBE3A
:101BA0000F901F901895CF92DF92EF92FF920F93B4
:101BB0001F93CF93DF938C01EB016A014617570700
:101BC00020F48D2FEA01C62ED82EF8011182108242
:101BD000138212821582148240E050E068E671E0C0
:101BE000C8010E94F703E090D103F090D203CE1514
:101BF000DF05B8F5CE14DF0408F47601E091CD03DB
:101C0000F091CE03EE0DFF1DD08010826091CD03C8
:101C10007091CE036C0F7D1F6115710561F0FB01A2
:101C200001900020E9F73197AF01461B570BC8011F
:101C30000E94F7030EC0F80180819181009711F096
:101C40000E942B26F80111821082158214821382C1
:101C500012828091CD039091CE03FC01EE0DFF1D09
:101C6000D082C801DF91CF911F910F91FF90EF902B
:101C7000DF90CF900895282F3091AE02313208F0D6
:101C80004AC080918A028111FCCF9091AD0242E05E
:101C900040938A02209389022FEF209388021092AA
:101CA000870230938602EDE8F2E0A6E6B2E020E09B
:101CB000321721F041914D932F5FFACF10926502B8
:101CC00020916502990F922B909365029091640286
:101CD000913061F410926402909165029093BB0080
:101CE0009091BC0093FDF8CF95EC01C095EE9093D8
:101CF000BC0090918A029230E1F3909188029F3F5C
:101D000079F080918802803241F08091880280339E
:101D100031F084E005C081E003C082E001C083E0CF
:101D200010928C021092AE0210928B0208950F93C3
:101D30001F93CF93DF93C6EDD3E008EE13E027EDBA
:101D400033E042E065E488810E948D0B89819A81AD
:101D5000982789279827DF91CF911F910F91089598
:101D60000F931F93CF93DF93C6EDD3E008EE13E0FC
:101D700027ED33E042E063E488810E948D0B898186
:101D80009A81982789279827DF91CF911F910F91EA
:101D900008950F931F93CF93DF93EC0122E00E94ED
:101DA00035078C0166E671E0CE010E94D706800FF0
:101DB000911FDF91CF911F910F910895CF93DF93E2
:101DC000EA0191E090938B028093AD0210928C0215
:101DD0001092AE028CE993E00E94250968818CE99B
:101DE00093E00E94250981E00E943B0E91E0811161
:101DF00090E0892FDF91CF9108952091D103309108
:101E0000D2038217930760F42091CD033091CE0363
:101E10002115310529F0F901E80FF91F8081089596
:101E200080E00895CF93DF93682F8091D103909144
:101E3000D203892B79F0C091CD03D091CE03062E29
:101E4000000C770BCE010E948827009719F08C1B9D
:101E50009D0B02C08FEF9FEFDF91CF9108950F93FD
:101E60001F93CF93DF9300D0CDB7DEB789831A825B
:101E70000091D1031091D2030F5F1F4FB8018DEC79
:101E800093E00E94D0038823A1F02091CD033091EC
:101E9000CE038091D1039091D203BE016F5F7F4F3B
:101EA000820F931F0E9493271093D2030093D103B4
:101EB00081E00F900F90DF91CF911F910F910895C6
:101EC00020916302211103C08FEF9FEF08955FB748
:101ED000F89422E02093E9002091F20030E01216FD
:101EE000130614F421E030E0422FFC0184E6415057
:101EF00038F02898809362029091F1009193F7CF87
:101F00002115310521F08091F200882319F05FBF7F
:101F1000C90108958BE68093E800F9CF2FB7F894B4
:101F200083E08093E9009091E800892F807295FF0B
:101F300004C09091F20080E4891B2FBF0895809126
:101F4000EE0381110DC082E08093EA0384E0809368
:101F5000EB031092ED031092EC0381E08093EE030B
:101F60008AEE93E0089590E0FC013197EF30F1059F
:101F7000B0F5E15AFF4F0C947925809180008F775E
:101F800003C0809180008F7D8093800008958091B0
:101F90008000877FF9CF84B58F7702C084B58F7DAD
:101FA00084BD0895809190008F7707C08091900044
:101FB0008F7D03C080919000877F8093900008956B
:101FC0008091C0008F7703C08091C0008F7D809387
:101FD000C00008958091C200877F8093C200089559
:101FE0001F93CF93DF93282F30E0F901E05DFD4F81
:101FF0008491F901EF5EFD4FD491F901EE50FE4F4F
:10200000C491CC23C1F0162F81110E94B30FEC2F85
:10201000F0E0EE0FFF1FEC51FE4FA591B4919FB77A
:10202000F894111104C08C91D095D82302C0EC9182
:10203000DE2BDC939FBFDF91CF911F910895CF934B
:10204000DF9390E0FC01EF5EFD4F2491FC01EE5028
:10205000FE4F8491882361F190E0880F991FFC0165
:10206000EA52FE4FC591D491FC01EC51FE4FA5916F
:10207000B491611109C09FB7F8948881209582239B
:102080008883EC912E230BC0623061F49FB7F894E3
:102090008881322F309583238883EC912E2B2C93CB
:1020A0009FBF06C08FB7F894E8812E2B28838FBF7F
:1020B000DF91CF9108953FB7F8948091E603909116
:1020C000E703A091E803B091E90326B5A89B05C0FA
:1020D0002F3F19F00196A11DB11D3FBFBA2FA92FA7
:1020E000982F8827820F911DA11DB11DBC01CD0124
:1020F00042E0660F771F881F991F4A95D1F7089510
:102100008F929F92AF92BF92CF92DF92EF92FF9207
:102110006B017C010E945B104B015C01C114D10476
:10212000E104F104F1F00E945B10DC01CB0188199D
:102130009909AA09BB09883E9340A105B10570F32E
:1021400021E0C21AD108E108F10888EE880E83E088
:10215000981EA11CB11CC114D104E104F10419F7AB
:10216000DDCFFF90EF90DF90CF90BF90AF909F902A
:102170008F9008951F920F920FB60F9211242F93F4
:102180003F938F939F93AF93BF9380915E02909103
:102190005F02A0916002B09161023091E50323E0FB
:1021A000230F2D3720F40196A11DB11D05C026E88F
:1021B000230F0296A11DB11D2093E50380935E02BB
:1021C00090935F02A0936002B09361028091E60356
:1021D0009091E703A091E803B091E9030196A11D56
:1021E000B11D8093E6039093E703A093E803B093B7
:1021F000E903BF91AF919F918F913F912F910F90E4
:102200000FBE0F901F901895CF92DF92EF92FF9222
:102210000F931F93E82FF92F05C0015011092109D1
:10222000310961F1908196239417B9F305C00150EB
:1022300011092109310911F1908196239413F7CFE7
:10224000C12CD12CE12CF12C0AC08FEFC81AD80A6E
:10225000E80AF80A0C151D052E053F0579F0808166
:102260008623841791F36C2D7D2D8E2D9F2D1F912C
:102270000F91FF90EF90DF90CF90089560E070E0B5
:1022800080E090E01F910F91FF90EF90DF90CF9052
:102290000895CF93DF93CDB7DEB72F970FB6F8949D
:1022A000DEBF0FBECDBF789484B5826084BD84B597
:1022B000816084BD85B5826085BD85B5816085BD41
:1022C00080916E00816080936E00109281008091F9
:1022D0008100826080938100809181008160809381
:1022E00081008091800081608093800080919100C6
:1022F0008260809391008091910081608093910031
:10230000809190008160809390008091C1008460F2
:102310008093C1008091C10082608093C100809150
:10232000C10081608093C1008091C300816080936F
:10233000C3008091C00082608093C0008091C20081
:1023400081608093C20080917A00846080937A00DB
:1023500080917A00826080937A0080917A00816017
:1023600080937A0080917A00806880937A0010923E
:10237000630210927701109276018091D7008160FC
:102380008093D70080EA8093D80089B5806189BDA9
:1023900089B5826089BD09B400FEFDCF61E070E0BF
:1023A00080E090E00E9480108091D8008F7C806156
:1023B0008093D8008091E000807F8093E00080913E
:1023C000E1008E7E8093E1008DE08093E200559ADB
:1023D000209AE091BF02F091C00282E08083E091F8
:1023E000BB02F091BC021082E091BD02F091BE02EE
:1023F00080E180831092C702E091C302F091C40291
:1024000086E08083E091C102F091C2028081806108
:102410008083E091C102F091C20280818860808354
:10242000E091C102F091C202808180688083E091D6
:10243000C102F091C20280818F7D80838FEF9FEF78
:10244000909359038093580310927D0110927C0160
:1024500010928C021092AE0210928A0281E0809358
:1024600089021092640261E082E00E94F00F61E054
:1024700083E00E94F00F8091B9008E7F8093B900B5
:102480008091B9008D7F8093B90088E48093B80073
:1024900085E48093BC008AEC98E090937B01809364
:1024A0007A018BEC98E0909379018093780161E058
:1024B0008FE00E941F1061E08EE00E941F1060E01C
:1024C0008EE00E94F00F61E080E10E941F1061E049
:1024D0008AE00E941F1060E08AE00E94F00F61E035
:1024E00083E10E941F1061E087E00E941F1060E0FE
:1024F00088E00E941F108091D3038C3008F051C0F7
:1025000061E085E00E941F108091D303E82FF0E086
:102510009F01220F331FE20FF31FE855FC4F9081FC
:10252000907C956090831092D4031092D5036CE058
:102530000E9459252CE0829FB001112440E050E018
:102540009B01240F351FF901EE0FFF1F2E0F3F1FB8
:10255000F901E855FC4F908196FD16C04F5F5F4F23
:102560004C30510569F781110FC01092800082E054
:10257000809381001092850010928400B19A80911E
:102580006F00826080936F00E091D303F0E0CF0191
:10259000880F991FE80FF91FE855FC4F8081806470
:1025A000808360E08FE00E94F00F60E080E10E9495
:1025B000F00F64E170E080E090E00E94801061E044
:1025C0008FE00E94F00F61E080E10E94F00F64E173
:1025D00070E080E090E00E94801060E08FE00E9458
:1025E000F00F60E080E10E94F00F8CE08093B80073
:1025F000F894109290001092910010929500109211
:1026000094008FE391E090939900809398008091DB
:102610009100886080939100809191008160809307
:10262000910080917100826080937100789401E044
:1026300023E042E06BE68091D6030E94B00C00E0FC
:1026400022E044E06BE18091D6030E94B00C22E0CE
:1026500044E06CE18091D6030E94B00CF090D60368
:1026600008EE13E09E012F5F3F4F41E06BE68F2D98
:102670000E948D0B89818F7B89838B87AE01455F9B
:102680005F4F6BE68F2D0E94DE0E00E022E044E0FB
:102690006BE18091D6030E94B00C01E022E044E09F
:1026A0006CE18091D6030E94B00C03E023E042E08D
:1026B0006AE18091D6030E94B00C6EED71E080E07B
:1026C00090E00E942B0D68ED71E08AE090E00E949E
:1026D0002B0D64ED71E084E190E00E942B0D6EE122
:1026E00071E08EE190E00E942B0D60E971E088E2DC
:1026F00090E00E942B0D60ED71E082E390E00E947B
:102700002B0D4091DE015091DF016091E00170914D
:10271000E1018CE493E00E94C90E4091D8015091F0
:10272000D9016091DA017091DB018CE493E00E94A1
:10273000C90E4091D4015091D5016091D60170919C
:10274000D7018CE493E00E94C90E40E050E060EBBA
:1027500070E48CE493E00E94C90E40919001509186
:10276000910160919201709193018CE493E00E9439
:10277000C90E4091D0015091D1016091D201709168
:10278000D3018FEA92E00E94C90E4091DE01509180
:10279000DF016091E0017091E1018FEA92E00E9417
:1027A000C90E4091D8015091D9016091DA01709120
:1027B000DB018FEA92E00E94C90E4091D401509152
:1027C000D5016091D6017091D7018FEA92E00E9405
:1027D000C90E40E050E060EB70E48FEA92E00E94A6
:1027E000C90E4091900150919101609192017091B8
:1027F00093018FEA92E00E94C90E4091D00150915E
:10280000D1016091D2017091D3018FEA92E00E94D0
:10281000C90E1092CE011092CD011FE0C12ED12C15
:1028200003E4602E02E0702E84E2A82E82E0B82E2F
:1028300095E0892E92E0992E2BECE22E29E3F22EE0
:102840000091CD011091CE01043F81E018070CF0FA
:1028500065C0C801B6010E946525BC01892B01F540
:10286000F3018491F5015490F4014490442099F0CF
:1028700081110E94B30FE42DF0E0EE0FFF1FED5A1F
:10288000FE4FA591B4918C91582291E080E009F41B
:1028900090E0692F782FF1E06F2783E10E94F00F1D
:1028A0000E94B00E092E000CAA0BBB0B4091B80180
:1028B0005091B9016091BA017091BB01840F951FCD
:1028C000A61FB71F8093B8019093B901A093BA01D6
:1028D000B093BB010E94970E092E000CAA0BBB0BF4
:1028E0004091BC015091BD016091BE017091BF014A
:1028F000840F951FA61FB71F8093BC019093BD0145
:10290000A093BE01B093BF01C7010197F1F70F5F1C
:102910001F4F1093CE010093CD0192CF61E083E170
:102920000E94F00F6091B8017091B9018091BA01D5
:102930009091BB01A4EFCA2EDD24D394E12CF12C9D
:10294000A70196010E94CF222093B8013093B901CC
:102950004093BA015093BB016091BC017091BD01DD
:102960008091BE019091BF01A70196010E94CF22E4
:102970002093BC013093BD014093BE015093BF0131
:102980000E945B10DC01CB018056904FAF4FBF4FD0
:102990008093820190938301A0938401B093850179
:1029A0000E945B106093E8017093E9018093EA0153
:1029B0009093EB018FEA92E00E94460218161906E6
:1029C000C4F511E08FEA92E00E944602181619063B
:1029D00034F48091E7018B3311F00C94581F8091EF
:1029E000E601882331F18BE30E942F0F80E090E015
:1029F0000E94FD0E833711F40C94621E14F00C94A7
:102A00004B1E833611F40C942B1F8B3611F40C944F
:102A1000831E40E050E068E671E08DEC93E00E9498
:102A2000F7031092E7011092E6011092CE01109286
:102A3000CD018091CD019091CE018A31910534F480
:102A400001969093CE018093CD010CC01092E501C8
:102A50001092E4011092CF018AE590E090930B016F
:102A600080930A0160910A0170910B01603222E0AB
:102A700072070CF040C077FD06C0653B71052CF075
:102A800064EB70E002C060E070E08091D403A8E8DD
:102A9000B0E06D01C81AD10887FDD394D601AA0F02
:102AA000BB1FAA0FBB1F6D01BB0FEE08FF08809173
:102AB000D50308E512E0081B110987FD1395000FE7
:102AC000111F000F111F012E000C220B330BA90147
:102AD00098012C193D094E095F09DB010E94F9227A
:102AE00024EB30E040E050E00E94CF22C20ED31E23
:102AF000E41EF51EB6018091D3038C3088F59091C9
:102B0000D403A8E8B0E0A91BB10997FDB395AA0FBB
:102B1000BB1FAA0FBB1F6A177B078CF09091D503D0
:102B200028E532E0291B310997FD3395220F331F29
:102B3000220F331FDB01261737070CF4D901129738
:102B4000AA0FBB1F2FB7F89490E0FC01EE0FFF1FF8
:102B50008E0F9F1FFC01E855FC4FB283A1832FBF4E
:102B60003090CF0161E0632583E10E94F00F08EE11
:102B700013E027ED33E042E06FE38091D6030E943B
:102B80008D0B8091D7039091D80398278927982798
:102B90008930A0E29A0714F088E090E29093CC018B
:102BA0008093CB018091CB019091CC01883F9F4DC8
:102BB00034F488EF9FED9093CC018093CB0160912A
:102BC000CB017091CC01072E000C880B990B0E9451
:102BD000992120E030E240E056E40E94F1230E9477
:102BE000D6232BE13FE245E652E40E94F8216B0137
:102BF0007C016093C7017093C8018093C9019093D1
:102C0000CA018091C60181111FC020E030E040E080
:102C100050ECC701B6010E94F4241816ACF420E071
:102C200030E040EA50E4C701B6010E94922187FFDC
:102C30000BC0C092C201D092C301E092C401F092D5
:102C4000C50181E08093C6010E94B00E8C010E94F4
:102C5000970E2091BC013091BD01821B930BBC01EA
:102C6000990F880B990B0E9499212FEF35E042E0D4
:102C700058E30E94F8212091C2013091C301409194
:102C8000C4015091C5010E946A232091B80130917E
:102C9000B901021B130B1093C1010093C00129EC71
:102CA00035EE4FE75FE30E94F8214B015C0127E11D
:102CB00037EB41ED59E3C701B6010E94F8219B01B2
:102CC000AC01C501B4010E946A236C877D878E87A1
:102CD0009F876093C2017093C3018093C401909356
:102CE000C501C0900601D0900701E0900801F09066
:102CF00009012091B4013091B5014091B601509184
:102D0000B7010E946923A70196010E9469232B0144
:102D10003C016093B0017093B1018093B201909334
:102D2000B3018090AC019090AD01A090AE01B09045
:102D3000AF0120E030E040E251E4C501B4010E945F
:102D4000F424181654F020E030E040E251ECC501C4
:102D5000B4010E94922187FF14C02FE832EC45E7AE
:102D60005CE3C501B4010E94F821A30192010E9415
:102D70006A236093B0017093B1018093B201909384
:102D8000B3014090B0015090B1016090B2017090D9
:102D9000B3012091D8013091D9014091DA015091CD
:102DA000DB01C301B2010E94F8212091A8013091FA
:102DB000A9014091AA015091AB010E946A234B01E5
:102DC0005C0120E030E048EC53E40E94F424181643
:102DD0002CF480E090E0A8ECB3E417C020E030E0F1
:102DE00048EC53ECC501B4010E94922187FD09C053
:102DF0008092A8019092A901A092AA01B092AB0181
:102E00000CC080E090E0A8ECB3EC8093A801909314
:102E1000A901A093AA01B093AB012091DE013091EA
:102E2000DF014091E0015091E101C301B2010E9434
:102E3000F8212091A8013091A9014091AA01509157
:102E4000AB010E946A234B015C012091A4013091E7
:102E5000A5014091A6015091A701C301B2010E94B2
:102E600069232091D4013091D5014091D601509130
:102E7000D7010E94F8219B01AC01C501B4010E9459
:102E80006A234B015C0120E030E048EC53E40E94EF
:102E9000F42418162CF480E090E0A8ECB3E417C0FA
:102EA00020E030E048EC53ECC501B4010E949221CF
:102EB00087FD09C08092AC019092AD01A092AE0155
:102EC000B092AF010CC080E090E0A8ECB3EC80932E
:102ED000AC019093AD01A093AE01B093AF014092CD
:102EE000A4015092A5016092A6017092A701809062
:102EF000AC019090AD01A090AE01B090AF0120E088
:102F000030E040EA50E4C501B4010E94922187FFFD
:102F100012C020E030E040EA50ECC501B4010E944C
:102F2000F424181644F41092AC011092AD011092E2
:102F3000AE011092AF0120E030E040EF51E46C852B
:102F40007D858E859F850E94F424181684F020E0EC
:102F500030E040EF51EC6C857D858E859F850E9429
:102F6000922187FD04C08091C60181111AC0109280
:102F7000AC011092AD011092AE011092AF0110920F
:102F8000A8011092A9011092AA011092AB0110920F
:102F9000C6011092B4011092B5011092B6011092C0
:102FA000B7018090AC019090AD01A090AE01B090BF
:102FB000AF01A50194016091A0017091A1018091E0
:102FC000A2019091A3010E946A2360939C017093D7
:102FD0009D0180939E0190939F01A50194016091B2
:102FE00098017091990180919A0190919B010E94A2
:102FF0006A23609394017093950180939601909356
:103000009701311065C18091E50190ED980F9430E2
:1030100008F068C0803329F480E090E0A0E1B1E4DA
:1030200012C0813329F48BE794E1A2E0B1E40BC034
:10303000823329F480E090E0A8EEB0E404C080E0A0
:1030400090E0ACECB0E48093020190930301A09374
:103050000401B09305018090020190900301A090BB
:103060000401B09005012DEC3CEC4CE45DE3C5019E
:10307000B4010E9469239B01AC01C701B6010E9403
:10308000922187FF10C02DEC3CEC4CE45DE3C701BE
:10309000B6010E946A236093060170930701809332
:1030A000080190930901C0900601D0900701E090BB
:1030B0000801F09009012DEC3CEC4CE45DE3C50106
:1030C000B4010E946A23A70196010E94922187FF02
:1030D000E8C12DEC3CEC4CE45DE3C701B6010E9475
:1030E0006923D7C19BEC980F943008F067C08533F3
:1030F00029F480E090E0A4E9B0E412C0863329F41A
:1031000080E090E0A0E7B0E40BC0873329F484E1CD
:103110009EEAA7E3B0E404C080E090E0A0E0B0E461
:103120008093020190930301A0930401B0930501E1
:103130008090020190900301A0900401B0900501DD
:103140002DEC3CEC4CE45DE3C501B4010E946A2324
:103150009B01AC01C701B6010E94F424181684F447
:103160002DEC3CEC4CE45DE3C701B6010E94692301
:103170006093060170930701809308019093090101
:10318000C0900601D0900701E0900801F09009017D
:103190002DEC3CEC4CE45DE3C501B4010E946923D5
:1031A000A70196010E94F42418160CF07AC12DECA8
:1031B0003CEC4CE45DE3C701B60169C120E030E0BE
:1031C00040EC50E4C701B6010E94F42418164CF4F8
:1031D0002DEC3CEC4CE45DE3C701B6010E94692391
:1031E00012C020E030E040EA50E4C701B6010E947E
:1031F000922187FF11C02DEC3CEC4CE45DE3C7014C
:10320000B6010E946A2360930601709307018093C0
:103210000801909309010CC080E090E0A0EBB0E4BD
:103220008093060190930701A0930801B0930901D0
:1032300020E030E040EB50E460910601709107011E
:1032400080910801909109010E949221811129C168
:1032500020E030E0A901C501B4010E94922187FF5E
:1032600016C026EA3BE944EC5AE36091B401709140
:10327000B5018091B6019091B7010E946A236093D5
:10328000B4017093B5018093B6019093B70120E02B
:1032900030E0A901C501B4010E94F42418160CF015
:1032A00000C126EA3BE944EC5AE36091B401709115
:1032B000B5018091B6019091B7010E946923609396
:1032C000B4017093B5018093B6019093B701E9C042
:1032D00060E087E00E94F00F61E087E00E94F00F5D
:1032E00083E290E00197F1F760E087E00E94F00F41
:1032F000E9E1F2E06491EAEFF1E0E491F0E0EE0F51
:10330000FF1FED5AFE4F8591949100E412E42FE0E7
:1033100030E0462F0E940411611571058105910569
:1033200009F4E7C5DC01CB010196A11DB11DBC016B
:10333000CD019F700E94992126E933E44BE05DE3C3
:103340000E94F82120E030E040E05FE30E94F82195
:103350000E9463246D307105810591050CF4BAC596
:1033600080E090E0A0E0B0E480930201909303013C
:10337000A0930401B0930501C0900601D09007010D
:10338000E0900801F0900901809002019090030103
:10339000A0900401B0900501A5019401C701B601F8
:1033A0000E94F424181684F42DEC3CEC4CE45DE30C
:1033B000C701B6010E94692360930601709307015B
:1033C0008093080190930901C0900601D0900701F5
:1033D000E0900801F0900901A7019601C501B40130
:1033E0000E94F424181684F42DEC3CEC4CE45DE3CC
:1033F000C701B6010E946A2360930601709307011A
:103400008093080190930901C0909001D0909101A0
:10341000E0909201F09093018090AC019090AD010A
:10342000A090AE01B090AF01C701B6019058A501C0
:1034300094010E94922187FF16C02AE037ED43E2F3
:103440005CE3609106017091070180910801909101
:1034500009010E946923609306017093070180931C
:10346000080190930901A5019401C701B6010E94CA
:10347000F4241816B4F42AE037ED43E25CE36091DB
:1034800006017091070180910801909109010E9445
:103490006A2360930601709307018093080190935B
:1034A0000901E091E4018E2FEE0F990BAA0BBB0BE3
:1034B000FC01F097C090AC01D090AD01E090AE015E
:1034C000F090AF01E930F10508F0EFC0EA5AFF4F84
:1034D0000C9479258090D0019090D101A090D201D8
:1034E000B090D301A5019401C701B60132C020E01C
:1034F00030E040E450E46091D0017091D1018091BE
:10350000D2019091D3010E94F8210CC06091D001AA
:103510007091D1018091D2019091D3019B01AC01B6
:103520000E946A2320E030E040E85EE30CC020E027
:1035300030E040E85EE36091D0017091D10180916C
:10354000D2019091D3010E94F8214B015C01A701A7
:1035500096010E946A232091940130919501409137
:103560009601509197010E94F4241816B4F42DECA2
:103570003CEC4CEC5DE36091980170919901809175
:103580009A0190919B010E946A2360939801709325
:10359000990180939A0190939B01A5019401C70121
:1035A000B6010E94692320919C0130919D014091B8
:1035B0009E0150919F010E94922187FF1AC12DEC1C
:1035C0003CEC4CEC5DE3DBC020E030E040E85EE347
:1035D00004C020E030E040E05FE36091D0017091F2
:1035E000D1018091D2019091D30112C020E030E04E
:1035F00040E450E46091D0017091D1018091D201FA
:103600009091D3010E94F82120E030E040E85EE391
:103610000E94F8214B015C0108C08090D00190907D
:10362000D101A090D201B090D301A5019401C701AE
:10363000B6010E9469232091940130919501409137
:103640009601509197010E94922187FF16C02DECA0
:103650003CEC4CEC5DE36091980170919901809194
:103660009A0190919B010E94692360939801709345
:10367000990180939A0190939B01A5019401C70140
:10368000B6010E946A2320919C0130919D014091D6
:103690009E0150919F010E94F42418160CF0A9C0BD
:1036A0002DEC3CEC4CEC5DE391C02AE939E949E9A9
:1036B0005EE3C701B6010E946A232B013C018090A2
:1036C000940190909501A0909601B0909701A5016A
:1036D00094010E94922187FF0FC020E030E040E07B
:1036E0005FE3609198017091990180919A019091A6
:1036F0009B010E9469231EC0A70196016AE979E92E
:1037000089E99EEB0E9469239B01AC01C501B401CC
:103710000E94922187FF17C020E030E040E05FE385
:10372000609198017091990180919A0190919B010B
:103730000E946A23609398017093990180939A0183
:1037400090939B0108C010929801109299011092D9
:103750009A0110929B0180909C0190909D01A090F5
:103760009E01B0909F01A5019401C301B2010E9486
:10377000922187FF17C020E030E040E05FE36091D6
:10378000A0017091A1018091A2019091A3010E94DA
:1037900069236093A0017093A1018093A20190938B
:1037A000A30127C0A70196016AE979E989E99EEB9F
:1037B0000E9469239B01AC01C501B4010E949221C2
:1037C00087FF0FC020E030E040E05FE36091A001A0
:1037D0007091A1018091A2019091A3010E946A239E
:1037E000D8CF1092A0011092A1011092A2011092C4
:1037F000A3018091000190910101181619060CF4A3
:10380000C0C08FE090E0909301018093000140914F
:10381000C7015091C8016091C9017091CA0122E0AD
:103820008FEA92E00E94350761E671E08FEA92E04C
:103830000E94D7064091C2015091C3016091C4011A
:103840007091C50122E08FEA92E00E94350761E69F
:1038500071E08FEA92E00E94D7064091B00150914A
:10386000B1016091B2017091B30122E08FEA92E060
:103870000E94350761E671E08FEA92E00E94D70668
:103880004091060150910701609108017091090172
:1038900022E08FEA92E00E94350761E671E08FEA4C
:1038A00092E00E94D7064091AC015091AD01609129
:1038B000AE017091AF0122E08FEA92E00E943507DD
:1038C00061E671E08FEA92E00E94D7064091A00184
:1038D0005091A1016091A2017091A30122E08FEAB1
:1038E00092E00E94350761E671E08FEA92E00E9463
:1038F000D706409198015091990160919A01709179
:103900009B0122E08FEA92E00E94350760918C01D2
:1039100070918D0180918E0190918F012FE030E0A8
:1039200040E050E00E94382330938B0120938A01BD
:1039300061E671E08FEA92E00E94D70640918A0129
:1039400050918B0160E070E02AE08FEA92E00E94E3
:10395000EC0610928C0110928D0110928E01109243
:103960008F0110928B0110928A0163E671E08FEA59
:1039700092E00E94D70666E671E08FEA92E00E942C
:10398000D706C0909C01D0909D01E0909E01F090E0
:103990009F0120E030E0A901C701B6010E94F42494
:1039A0001816ECF420E030E040E151E4C701B60124
:1039B0000E946A239B01AC0160E070E080E89FE315
:1039C0000E94F12320E030EE4BEA55E40E94F821FA
:1039D0009B01AC0160E070E88AEC93E425C020E034
:1039E00030E0A901C701B6010E94922187FF26C0DD
:1039F00020E030E040E151E4C701B6010E946923B4
:103A00009B01AC0160E070E080E89FE30E94F1233D
:103A100020E030EE4BEA55E40E94F8219B01AC0116
:103A200060E070E88AEC93EC0E94692360939C014B
:103A300070939D0180939E0190939F01C09094018B
:103A4000D0909501E0909601F090970120E030E051
:103A5000A901C701B6010E94F4241816ECF420E075
:103A600030E040E151E4C701B6010E946A239B01A6
:103A7000AC0160E070E080E89FE30E94F12320E069
:103A800030EE4BEA55E40E94F8219B01AC0160E066
:103A900070E88AEC93E425C020E030E0A901C7017A
:103AA000B6010E94922187FF26C020E030E040E16D
:103AB00051E4C701B6010E9469239B01AC0160E09B
:103AC00070E080E89FE30E94F12320E030EE4BEAB3
:103AD00055E40E94F8219B01AC0160E070E88AEC9B
:103AE00093EC0E94692360939401709395018093F5
:103AF000960190939701C0909C01D0909D01E09019
:103B00009E01F0909F0120E030E0A901C701B601BD
:103B10000E94F42418163CF4A701960160E070E0BE
:103B200088EC93E40FC020E030E0A901C701B601A2
:103B30000E94922187FF0FC0A701960160E070E00C
:103B400088EC93EC0E9469230E946324709389019E
:103B50006093880104C01092890110928801C0907E
:103B60009401D0909501E0909601F090970120E0AB
:103B700030E0A901C701B6010E94F42418163CF4F4
:103B8000A701960160E070E088EC93E40FC020E0AC
:103B900030E0A901C701B6010E94922187FF0FC042
:103BA000A701960160E070E088EC93EC0E94692325
:103BB0000E946324709387016093860104C0109271
:103BC00087011092860180918801909189019093DC
:103BD000810180938001809186019091870190936B
:103BE0007F0180937E0180910001909101010197F6
:103BF00090930101809300010E945B1000918C0161
:103C000010918D0120918E0130918F01C090E801BB
:103C1000D090E901E090EA01F090EB010C191D0948
:103C20002E093F09DC01CB01800F911FA21FB31F9A
:103C300080938C0190938D01A0938E01B0938F019E
:103C40000E945B106093E8017093E9018093EA01A0
:103C50009093EB010E945B1000918201109183010F
:103C600020918401309185016017710782079307C5
:103C700088F3D901C8018056904FAF4FBF4F809352
:103C8000820190938301A0938401B09385010E94E7
:103C9000EB020C94D014853709F4F7C00CF4B9C0CA
:103CA000863711F00C94091581E090E00E94FD0E1A
:103CB0008093E50182E090E00E94FD0E8093E40194
:103CC0000C9409158BE30E94120FAC0161E070E0C7
:103CD000CE0101960E94D30DCE0101960E94C5032C
:103CE0006F83788789879A87BE01695F7F4F8EE1EE
:103CF00090E00E94000DCE0101960E9422041092D5
:103D0000E5010C9409158CE20E94120F9093E301D7
:103D10008093E201AC0161E070E0CE0101960E9467
:103D2000D30DCE0101960E94C5036093DE0170930E
:103D3000DF018093E0019093E101CE0101960E94A2
:103D400022040091E2011091E3010F5F1F4F809167
:103D5000D1039091D2030817190788F4E090CD039E
:103D6000F090CE036CE270E0C701800F911F0E94BB
:103D70008827009721F0AC014E195F0902C04FEF70
:103D80005FEF5093DD014093DC01B801CE01019655
:103D90000E94D30DCE0101960E94C5036093D80105
:103DA0007093D9018093DA019093DB01CE010196E3
:103DB0000E9422048BE30E94120F6091DC0170913B
:103DC000DD016F5F7F4FAC01CE0101960E94D30DE4
:103DD000CE0101960E94C5036093D4017093D50172
:103DE0008093D6019093D701CE0101960E942204C0
:103DF0006EED71E080E090E00E94000D68ED71E0F2
:103E00008AE090E00E94000D64ED71E084E190E0B2
:103E10001EC04091D1035091D20361E070E0CE0109
:103E200001960E94D30DCE0101960E94C5036093B6
:103E3000D0017093D1018093D2019093D301CE0130
:103E400001960E94220460ED71E088E290E00E94F9
:103E5000000D0C9409154091D1035091D20361E0FB
:103E600070E0CE0101960E94D30DCE0101960E9412
:103E7000C5030E94632470930B0160930A01CE0175
:103E800001960E9422040C94091581E090E00E94A2
:103E9000FD0E813329F481E08093CF010C94091544
:103EA000803311F00C9409151092CF010C94091570
:103EB0008FEA92E00E9424028093E7018B3331F075
:103EC0000E942F0F1092E6010C94E2141093E60169
:103ED0000C94E21468307105810591052CF480E0A2
:103EE00090E0A0E1B1E440CA80E090E0A0EBB0E453
:103EF0003BCA60E070E0CB011DCA8DEC93E00C94EE
:103F000022041092B2021092B10288EE93E0A0E077
:103F1000B0E08093B3029093B402A093B502B09343
:103F2000B6022FE231E03093B0022093AF022DECC5
:103F300030E03093BC022093BB022CEC30E0309395
:103F4000BE022093BD0228EC30E03093C0022093E3
:103F5000BF0229EC30E03093C2022093C1022AEC68
:103F600030E03093C4022093C3022EEC30E0309353
:103F7000C6022093C5021092C8021092C902109284
:103F8000CA021092CB0210924F0310924E038093FC
:103F9000500390935103A0935203B093530321E431
:103FA00031E030934D0320934C032FEF3FEF3093DC
:103FB00059032093580310929F0310929E038093FD
:103FC000A0039093A103A093A203B093A30383E55E
:103FD00091E090939D0380939C0388E68093D603A1
:103FE0008091CC038C30A0F491E0980F9093CC0397
:103FF0008093D30390E0FC01EE0FFF1F8E0F9F1FF5
:10400000FC01E855FC4F88EB9BE09283818303C061
:104010008FEF8093D3031092CE031092CD031092B2
:10402000D0031092CF031092D2031092D10340E03C
:1040300050E068E671E08DEC93E00C94F70366279E
:1040400077270C942320A0E0B0E0E9E2F0E20C94A2
:104050000723EC016B016115710519F0FB019183D8
:1040600080837E01FFEFEF1AFF0A0881802F90E026
:104070000E947121892B11F0E701F3CF0D3239F441
:104080007E0182E0E80EF11C098111E008C00B32CC
:1040900029F47E0192E0E90EF11C098110E0E701AC
:1040A000219743E050E060E271E0CE010E947A2166
:1040B000892BC1F4239645E050E06BE171E0CE011D
:1040C0000E947A21892B09F42596C114D10419F094
:1040D000F601D183C0831111F6C060E070E080E882
:1040E0009FE7FAC043E050E068E171E0CE010E9432
:1040F0007A21892B59F4C114D10409F4E9C0F2E002
:10410000EF0EF11CF601F182E082E2C020E030E027
:10411000A901C0E0D0E0F70180EDA82EA00E89E053
:104120008A1530F1912F9260B92E812F887012FF7D
:1041300004C0811124C0219622C081112197A5E0DD
:10414000B0E00E94EE22DC01CB01880F991FAA1F6C
:10415000BB1F9C01AD012A0D311D411D511D283988
:1041600089E93807480789E1580748F0166006C012
:104170009EEFA9120AC013FD40C01860B12E8FEF48
:10418000E81AF80A00811B2DC6CF802F8F7D853459
:10419000A1F580818D3211F4106106C08B3221F0BF
:1041A000319661E070E004C08181329662E070E097
:1041B00080538A3018F0E61BF70B1FC060E070E0F8
:1041C00060389CE079075CF4DB01AA0FBB1FAA0FE3
:1041D000BB1F6A0F7B1F660F771F680F711D31961B
:1041E000DF0111978C9180538A3050F314FF03C084
:1041F000719561957109C60FD71F11FF08C0C114D1
:10420000D10429F0CF010197F60191838083CA017F
:10421000B9010E949721212F2370233019F04B01FF
:104220005C0106C04B015C01B7FAB094B7F8B094DA
:1042300020E030E0A901C501B4010E949221882349
:1042400009F43EC0D7FF06C0D195C195D10907E357
:1042500011E002C00FE411E06801F8E1CF1AD108C3
:1042600090E2E92EF12CCE15DF0574F0F8012591CE
:10427000359145915491C501B4010E94F8214B013B
:104280005C01CE19DF09EFCF04501109F594E794D2
:104290000C151D0541F78A2D880F8B2D881F8F3F28
:1042A00049F020E030E0A901C501B4010E9492214B
:1042B000811106C082E290E09093F7038093F603A9
:1042C000C501B40109C060E070E080E89FEF04C060
:1042D00060E070E080EC9FE7CDB7DEB7ECE00C94D7
:1042E000232391110C946522803219F08950855056
:1042F000C8F70895FB01DC014150504088F08D91D2
:1043000081341CF08B350CF4805E659161341CF0B7
:104310006B350CF4605E861B611171F3990B089587
:10432000881BFCCF0E94D42108F481E00895E89412
:1043300009C097FB3EF490958095709561957F4FED
:104340008F4F9F4F9923A9F0F92F96E9BB2793959B
:10435000F695879577956795B795F111F8CFFAF4AB
:10436000BB0F11F460FF1BC06F5F7F4F8F4F9F4FDC
:1043700016C0882311F096E911C0772321F09EE83A
:10438000872F762F05C0662371F096E8862F70E0A0
:1043900060E02AF09A95660F771F881FDAF7880F7A
:1043A0009695879597F90895990F0008550FAA0BD0
:1043B000E0E8FEEF16161706E807F907C0F0121638
:1043C0001306E407F50798F0621B730B840B950B3B
:1043D00039F40A2661F0232B242B252B21F4089590
:1043E0000A2609F4A140A6958FEF811D811D08952D
:1043F0000E940B220C947F220E94712238F00E94AE
:10440000782220F0952311F00C9468220C946E22EF
:1044100011240C94B3220E94902270F3959FC1F353
:10442000950F50E0551F629FF001729FBB27F00D62
:10443000B11D639FAA27F00DB11DAA1F649F6627B7
:10444000B00DA11D661F829F2227B00DA11D621F06
:10445000739FB00DA11D621F839FA00D611D221FC0
:10446000749F3327A00D611D231F849F600D211DA4
:10447000822F762F6A2F11249F5750409AF0F1F027
:1044800088234AF0EE0FFF1FBB1F661F771F881F90
:1044900091505040A9F79E3F510580F00C9468223E
:1044A0000C94B3225F3FE4F3983ED4F3869577955E
:1044B0006795B795F795E7959F5FC1F7FE2B880F36
:1044C000911D9695879597F90895992788270895BE
:1044D00097F99F6780E870E060E008959FEF80ECB7
:1044E000089500240A94161617061806090608955A
:1044F00000240A9412161306140605060895092EC0
:104500000394000C11F4882352F0BB0F40F4BF2B2E
:1045100011F460FF04C06F5F7F4F8F4F9F4F08956E
:1045200057FD9058440F551F59F05F3F71F0479564
:10453000880F97FB991F61F09F3F79F08795089549
:10454000121613061406551FF2CF4695F1DF08C068
:10455000161617061806991FF1CF86957105610585
:1045600008940895E894BB2766277727CB0197F92D
:104570000895F999FECF92BD81BDF89A992780B52B
:104580000895262FF999FECF1FBA92BD81BD20BD97
:104590000FB6F894FA9AF99A0FBE01960895052E6F
:1045A00097FB1EF400940E94E62257FD07D00E945C
:1045B000382307FC03D04EF40C94E6225095409526
:1045C000309521953F4F4F4F5F4F089590958095BF
:1045D000709561957F4F8F4F9F4F08950E945A238A
:1045E000A59F900DB49F900DA49F800D911D112447
:1045F0000895B7FF0C94EE220E94EE22821B930BCB
:1046000008952F923F924F925F926F927F928F9276
:104610009F92AF92BF92CF92DF92EF92FF920F9351
:104620001F93CF93DF93CDB7DEB7CA1BDB0B0FB65B
:10463000F894DEBF0FBECDBF09942A883988488818
:104640005F846E847D848C849B84AA84B984C884AE
:10465000DF80EE80FD800C811B81AA81B981CE0FA5
:10466000D11D0FB6F894DEBF0FBECDBFED0108958A
:10467000A1E21A2EAA1BBB1BFD010DC0AA1FBB1F66
:10468000EE1FFF1FA217B307E407F50720F0A21BD8
:10469000B30BE40BF50B661F771F881F991F1A9445
:1046A00069F760957095809590959B01AC01BD016F
:1046B000CF010895A29FB001B39FC001A39F700DC9
:1046C000811D1124911DB29F700D811D1124911D1A
:1046D00008955058BB27AA270E9481230C947F225B
:1046E0000E94712238F00E94782220F039F49F3F16
:1046F00019F426F40C946E220EF4E095E7FB0C946A
:104700006822E92F0E94902258F3BA1762077307B4
:104710008407950720F079F4A6F50C94B2220EF4E4
:10472000E0950B2EBA2FA02D0B01B90190010C01C1
:10473000CA01A0011124FF27591B99F0593F50F4D9
:10474000503E68F11A16F040A22F232F342F442731
:10475000585FF3CF469537952795A795F040539529
:10476000C9F77EF41F16BA0B620B730B840BBAF0F9
:104770009150A1F0FF0FBB1F661F771F881FC2F764
:104780000EC0BA0F621F731F841F48F48795779578
:104790006795B795F7959E3F08F0B0CF9395880F32
:1047A00008F09927EE0F9795879508959F939F7727
:1047B000EEE389379E0728F4ECEDF0E00E94E02458
:1047C0000CC00E9499249058A2EA2AED3FE049ECDF
:1047D0005FE30E9481230E947F220F9007FC905884
:1047E00008950E9405240C947F220E94782258F09C
:1047F0000E94712240F029F45F3F29F00C94682256
:1048000051110C94B3220C946E220E94902268F3F2
:104810009923B1F3552391F3951B550BBB27AA2779
:1048200062177307840738F09F5F5F4F220F331FB3
:10483000441FAA1FA9F335D00E2E3AF0E0E832D07B
:1048400091505040E695001CCAF72BD0FE2F29D07E
:10485000660F771F881FBB1F261737074807AB0750
:10486000B0E809F0BB0B802DBF01FF2793585F4FC5
:104870003AF09E3F510578F00C9468220C94B322D4
:104880005F3FE4F3983ED4F3869577956795B795A7
:10489000F7959F5FC9F7880F911D9695879597F9B2
:1048A0000895E1E0660F771F881FBB1F621773072B
:1048B0008407BA0720F0621B730B840BBA0BEE1F40
:1048C00088F7E09508950E946A246894B1110C94C9
:1048D000B32208950E94982288F09F5798F0B92F2C
:1048E0009927B751B0F0E1F0660F771F881F991F25
:1048F0001AF0BA95C9F714C0B13091F00E94B222F3
:10490000B1E008950C94B222672F782F8827B85F02
:1049100039F0B93FCCF3869577956795B395D9F77C
:104920003EF490958095709561957F4F8F4F9F4F86
:104930000895DF93CF931F930F938B01EC01E0EF6A
:10494000F0E00E94B9240E947F229801AE018B0101
:10495000EC0160E070E080E89FE30E9469230E9420
:10496000FF249801AE010F911F91CF91DF910C941C
:104970000B22DF93CF931F930F93FF92EF92DF925F
:104980007B018C01689406C0DA2EEF010E940B2295
:10499000FE01E894A5912591359145915591A6F395
:1049A000EF010E948123FE019701A801DA9469F7C3
:1049B000DF90EF90FF900F911F91CF91DF910895BD
:1049C0009F938F937F936F93FF93EF939B01AC0122
:1049D0000E94F821EF91FF910E94B9242F913F91FD
:1049E0004F915F910C94F8210E94D42108F48FEF2D
:1049F000089519F416F40C946E220C9444250E9428
:104A00009822B8F39923C9F3B6F39F57550B87FF44
:104A10000E9452250024A0E640EA90018058569555
:104A2000979528F4805C660F771F881F20F0261763
:104A30003707480730F4621B730B840B2029312998
:104A40004A2BA69517940794202531254A2758F715
:104A5000660F771F881F20F026173707480730F4A6
:104A6000620B730B840B200D311D411DA09581F746
:104A7000B901842F9158880F9695879508950E94C3
:104A8000D421880B990B08959F3F31F0915020F469
:104A9000879577956795B795880F911D969587951A
:104AA00097F9089591505040660F771F881FD2F7ED
:104AB0000895991B79E004C0991F961708F0961B7A
:104AC000881F7A95C9F78095089597FB072E16F4ED
:104AD000009407D077FD09D00E947F2507FC05D000
:104AE0003EF4909581959F4F0895709561957F4F05
:104AF0000895EE0FFF1F0590F491E02D0994AA1B75
:104B0000BB1B51E107C0AA1FBB1FA617B70710F0B8
:104B1000A61BB70B881F991F5A95A9F780959095EA
:104B2000BC01CD0108950F931F93CF93DF93823083
:104B3000910510F482E090E0E091FA03F091FB031C
:104B400020E030E0A0E0B0E0309719F140815181E1
:104B50000281138148175907C8F08417950769F433
:104B6000109731F012960C93129713961C9327C04E
:104B70000093FA031093FB0322C02115310519F0AD
:104B80004217530718F49A01BD01EF01DF01F80144
:104B9000DBCF21153105F9F0281B390B2430310505
:104BA00080F48A819B816115710521F0FB0193835B
:104BB000828304C09093FB038093FA03FE01329634
:104BC00044C0FE01E20FF31F8193919322503109FB
:104BD000398328833AC02091F8033091F903232BBD
:104BE00041F420911A0130911B013093F903209375
:104BF000F80320911801309119012115310541F474
:104C00002DB73EB740911C0150911D01241B350B5F
:104C1000E091F803F091F903E217F307A0F42E1BDB
:104C20003F0B2817390778F0AC014E5F5F4F241710
:104C3000350748F04E0F5F1F5093F9034093F80378
:104C40008193919302C0E0E0F0E0CF01DF91CF913A
:104C50001F910F910895CF93DF93009709F481C0BE
:104C6000FC01329713821282A091FA03B091FB03E8
:104C7000109781F420813181820F931F2091F803D6
:104C80003091F9032817390751F5F093F903E093B0
:104C9000F80367C0ED0120E030E0CE17DF0740F4F5
:104CA0004A815B819E0141155105F1F0EA01F5CF82
:104CB000D383C28340815181840F951FC817D907C0
:104CC00059F488819981840F951F0296918380837E
:104CD0008A819B81938382832115310529F4F09386
:104CE000FB03E093FA033DC0E901FB83EA834991AA
:104CF0005991C40FD51FEC17FD0761F48081918194
:104D0000840F951F0296E90199838883828193819C
:104D10009B838A83E0E0F0E012968D919C9113973B
:104D2000009719F0FD01DC01F7CF8D919C9111974F
:104D30009D012E5F3F4F820F931F2091F80330910A
:104D4000F9032817390769F4309729F41092FB0307
:104D50001092FA0302C013821282B093F903A09357
:104D6000F803DF91CF910895A0E0B0E0EAEBF6E21E
:104D70000C940523EC01009721F4CB010E949325AC
:104D8000B4C0FC01E60FF71F9C0122503109E21765
:104D9000F30708F4A8C0D9010D911C9111970617CB
:104DA0001707B0F00530110508F49BC0C80104973F
:104DB0008617970708F495C002501109061B170BB8
:104DC000019311936D937C93CF010E942B2689C090
:104DD0005B01A01AB10A4C01800E911EA091FA034A
:104DE000B091FB03612C712CE12CF12C109709F48C
:104DF00046C08D919C911197A815B905B1F56C012C
:104E000042E0C40ED11CCA14DB0478F14C018A18AC
:104E10009B08640142E0C40ED11C1296BC9012970C
:104E20001396AC91B5E0CB16D10440F0B282A383C7
:104E300091828082D9016D937C9309C00E5F1F4FD0
:104E4000800F911FF90191838083EB2DFA2FE114DC
:104E5000F10431F0D7011396FC93EE93129741C001
:104E6000F093FB03E093FA033CC06816790608F45C
:104E70003C017D0112960D90BC91A02DB7CF809181
:104E8000F8039091F90388169906E1F466167706FF
:104E9000C8F48091180190911901009741F48DB7E1
:104EA0009EB740911C0150911D01841B950BE81782
:104EB000F907C8F4F093F903E093F803F90171835B
:104EC00060830FC0CB010E9493257C01009759F0AD
:104ED000A801BE010E947F27CE010E942B26C70198
:104EE00004C0CE0102C080E090E0CDB7DEB7EEE0B6
:104EF0000C94212381E090E0F8940C949A27FB0114
:104F0000DC0102C001900D9241505040D8F7089545
:104F1000FC018191861721F08823D9F799270895FC
:104F20003197CF010895FB01DC0101900D92002023
:104F3000E1F7089511E0C9E2D1E004C0FE010E944A
:0E4F400079252196CA32D107C9F7F894FFCF20
:104F4E000F000000B0400000B0405A00FFFFFFFF0E
:104F5E0000E10000000000000000FC0380000000E3
:104F6E00B04000C18081000000E803000000007D19
:104F7E0002EB011502C902460224023802000000AB
:104F8E0000F5023F03580973087E0880095C09008A
:104F9E000000002509F8085509CC08F008DC08CDFA
:104FAE00082000203B000D0A006E616E00696E66DF
:064FBE00006F76660000A2
:00000001FF
